:100000000C9415030C943D030C943D030C943D0398
:100010000C943D030C943D030C943D030C943D0360
:100020000C943D030C943D030C943D030C943D0350
:100030000C943D030C943D030C943D030C943D0340
:100040000C943D100C943D030C943D030C943D0323
:100050000C943D030C943D030C943D030C943D0320
:100060000C94840D0C943D03EF03038002CF030036
:10007000C130ED0464031281E803850078CB0539B3
:100080002C003402F70120EA020000C00123C10164
:1000900010C5023E28C701863601483701003A01E3
:1000A00055B1020018B603088227F20100260101AB
:1000B000E00F0F312B0C0E084EF1370710030E091D
:1000C00000E10F000E1403110731C148080F0C3175
:1000D000360F118029800000000000240027002A2C
:1000E00000000000070002010000030406000000F9
:1000F000000000000000000000003E5B4F5B3E3E41
:100100006B4F6B3E1C3E7C3E1C183C7E3C181C57C3
:100110007D571C1C5E7F5E1C00183C1800FFE7C367
:10012000E7FF0018241800FFE7DBE7FF30483A0636
:100130000E2629792926407F050507407F05253FA2
:100140005A3CE73C5A7F3E1C1C08081C1C3E7F148E
:10015000227F22145F5F005F5F06097F017F0066D8
:1001600089956A606060606094A2FFA29408047E32
:10017000040810207E201008082A1C08081C2A08E1
:10018000081E101010100C1E0C1E0C30383E38309B
:10019000060E3E0E06000000000000005F0000009A
:1001A00007000700147F147F14242A7F2A122313C8
:1001B00008646236495620500008070300001C22DC
:1001C00041000041221C002A1C7F1C2A08083E080E
:1001D000080080703000080808080800006060000F
:1001E00020100804023E5149453E00427F40007203
:1001F000494949462141494D331814127F1027457A
:100200004545393C4A494931412111090736494997
:100210004936464949291E000014000000403400B8
:10022000000008142241141414141400412214086C
:1002300002015909063E415D594E7C1211127C7F24
:10024000494949363E414141227F4141413E7F4932
:100250004949417F090909013E414151737F08081D
:10026000087F00417F41002040413F017F08142268
:10027000417F404040407F021C027F7F0408107F86
:100280003E4141413E7F090909063E4151215E7FC1
:1002900009192946264949493203017F01033F4094
:1002A00040403F1F2040201F3F4038403F6314081C
:1002B000146303047804036159494D43007F4141AD
:1002C000410204081020004141417F040201020460
:1002D0004040404040000307080020545478407FCD
:1002E000284444383844444428384444287F385407
:1002F00054541800087E090218A4A49C787F0804AE
:10030000047800447D40002040403D007F10284498
:100310000000417F40007C047804787C0804047865
:100320003844444438FC1824241818242418FC7C2D
:1003300008040408485454542404043F44243C4012
:1003400040207C1C2040201C3C4030403C44281075
:1003500028444C9090907C4464544C4400083641AE
:10036000000000770000004136080002010204028C
:100370003C2623263C1EA1A161123A4040207A3837
:100380005454555921555579412254547842215598
:1003900054784020545579400C1E527212395555EC
:1003A0005559395454545939555454580000457CC2
:1003B000410002457D420001457C407D1211127DC5
:1003C000F0282528F07C545545002054547C547C5A
:1003D0000A097F4932494949323A4444443A324A47
:1003E0004848303A4141217A3A42402078009DA065
:1003F000A07D3D4242423D3D4040403D3C24FF24E3
:1004000024487E4943662B2FFC2F2BFF0929F62019
:10041000C0887E090320545479410000447D413056
:1004200048484A32384040227A007A0A0A727D0DE2
:1004300019317D2629292F28262929292630484D9A
:100440004020380808080808080808382F10C8ACE9
:10045000BA2F102834FA00007B000008142A142256
:1004600022142A14085500550055AA55AA55AAFF6A
:1004700055FF55FF000000FF00101010FF0014147E
:1004800014FF001010FF00FF1010F010F0141414EF
:10049000FC001414F700FF0000FF00FF1414F40424
:1004A000FC141417101F10101F101F1414141F0019
:1004B000101010F0000000001F101010101F10107E
:1004C0001010F010000000FF10101010101010108D
:1004D00010FF10000000FF140000FF00FF00001FCD
:1004E00010170000FC04F414141710171414F4046B
:1004F000F40000FF00F714141414141414F700F798
:10050000141414171410101F101F141414F41410C2
:1005100010F010F000001F101F0000001F1400005A
:1005200000FC140000F010F01010FF10FF14141461
:10053000FF141010101F00000000F010FFFFFFFF5D
:10054000FFF0F0F0F0F0FFFFFF0000000000FFFF01
:100550000F0F0F0F0F3844443844FC4A4A4A347E88
:1005600002020606027E027E026355494163384458
:10057000443C04407E201E2006027E020299A5E72C
:10058000A5991C2A492A1C4C7201724C304A4D4DC7
:10059000303048784830BC625A463D3E49494900AF
:1005A0007E0101017E2A2A2A2A2A44445F444440CB
:1005B000514A444040444A51400000FF0103E0805A
:1005C000FF000008086B6B083612362436060F0948
:1005D0000F06000018180000001010003040FF0146
:1005E00001001F01011E00191D1712003C3C3C3C7C
:1005F00000000000000102040810204080010204F5
:100600000810200102040810200000000025002826
:10061000002B000404040404040404020202020285
:1006200002030303030303006A1411241FBECFEF68
:10063000D8E0DEBFCDBF11E0A0E0B1E0ECEAFAE225
:1006400002C005900D92A037B107D9F723E0A0E7CB
:10065000B1E001C01D92AD3BB207E1F713E0C5E187
:10066000D3E004C02197FE010E944E15C431D1078A
:10067000C9F70E9416140C942D150C940000FC016F
:1006800087A987FD06C0A38DB48D9C9181A9892B74
:100690008C9308950895FC016370668B8481958125
:1006A00026813781613039F0633029F09187808766
:1006B000338722870895318720879387828708951B
:1006C0006F927F928F929F92AF92BF92CF92DF9262
:1006D000EF92FF920F931F93CF93DF93EC014B01A7
:1006E0005A0169013801E881F9810680F781E02D1E
:1006F0000995E881F9810684F785E02D8701960147
:10070000A501B401CE010995A501460D571D415023
:100710005109E881F9810684F785E02D9601B4013D
:10072000CE010995E881F9810484F585E02D9301D6
:10073000A501B401CE010995C80CD91CB6016150C0
:100740007109E881F9810484F585E02D9301A50103
:10075000CE010995E881F9810288F389E02DCE0167
:10076000DF91CF911F910F91FF90EF90DF90CF908D
:10077000BF90AF909F908F907F906F9009948F92D1
:100780009F92AF92BF92CF92DF92EF92FF920F9320
:100790001F93CF93DF934C016B015A01E901DC01F8
:1007A000ED91FC916217730781F40417150724F487
:1007B0008B2D5801042F182F0A191B0998012F5F40
:1007C0003F4F008CF18DE02D12C04017510709F505
:1007D0002617370724F48D2D6901C62FD82F9E01C7
:1007E0002C193D092F5F3F4F028CF38DE02D8701BF
:1007F000A501B601C4010995DF91CF911F910F9119
:10080000FF90EF90DF90CF90BF90AF909F908F9030
:1008100008950680F781E02D0995D401ED91FC91B2
:100820000088F189E02D9E01A501B601C40109955A
:10083000D401ED91FC910288F389E02DC401DF9190
:10084000CF911F910F91FF90EF90DF90CF90BF90CD
:10085000AF909F908F900994EF92FF920F931F9308
:10086000DC011A960D911C911B9718962D913C91C5
:100870001997ED91FC91048CF58DE02D7B0140E002
:1008800050E060E070E009951F910F91FF90EF90AC
:1008900008954F925F926F927F928F929F92AF9244
:1008A000BF92CF92DF92EF92FF920F931F93CF935D
:1008B000DF936C012B015A0139014801DC01ED91F4
:1008C000FC910680F781E02D0995E201640C751C0E
:1008D000D601ED91FC91C615D7055CF40484F5852D
:1008E000E02D87019401A501BE01C601099521965D
:1008F000EFCF0288F389E02DC601DF91CF911F91E0
:100900000F91FF90EF90DF90CF90BF90AF909F90AE
:100910008F907F906F905F904F9009948F929F92ED
:10092000AF92BF92CF92DF92EF92FF920F931F93FD
:10093000CF93DF93EC015B014A016901E881F98102
:100940000680F781E02D099595012C0D3D1D215064
:100950003109E881F9810088F189E02D780184016D
:10096000A401B501CE010995E881F9810288F389D6
:10097000E02DCE01DF91CF911F910F91FF90EF906D
:10098000DF90CF90BF90AF909F908F9009948F92FF
:100990009F92AF92BF92CF92DF92EF92FF920F930E
:1009A0001F93CF93DF93EC015B014A01690178014A
:1009B000E881F9810680F781E02D0995C80CD91CE2
:1009C000860101501109E881F9810088F189E02D43
:1009D0009501A401B501CE010995E881F98102884C
:1009E000F389E02DCE01DF91CF911F910F91FF9000
:1009F000EF90DF90CF90BF90AF909F908F90099431
:100A00000895EF92FF920F931F93DC01ED91FC91FB
:100A1000048CF58DE02D09951F910F91FF90EF90BB
:100A200008950F931F93DC01ED91FC91028CF38DDF
:100A3000E02D09951F910F9108950F931F93DC01ED
:100A4000ED91FC91008CF18DE02D09951F910F9196
:100A50000895DC01ED91FC910480F581E02D09946D
:100A60002F923F924F925F926F927F928F929F92BE
:100A7000AF92BF92CF92DF92EF92FF920F931F93AC
:100A8000CF93DF9300D000D000D0CDB7DEB72C01DC
:100A90007E836D836A015901C801FC82EB824801A3
:100AA000841A950A97FE03C09194819491083501A8
:100AB0002D813E81621A730A77FE03C0719461949E
:100AC0007108681479045CF43A2D2B2D5C01832F96
:100AD000922F3D812E81DE82CD82C32ED22EAD811A
:100AE000BE81AA16BB065CF43C2D2D2D6C01832F14
:100AF000922F3D812E81BE82AD82A32EB22E850122
:100B00002D813E81021B130B1C012C183D0837FE62
:100B100003C0319421943108780117FF03C03FEFDF
:100B2000E31AF30AF594E794C816D9062CF08FEF70
:100B30009FEF9A83898304C0A1E0B0E0BA83A983C0
:100B40002D813E81A216B30624F1D201ED91FC91D4
:100B50000084F185E02D2B813C816814790424F414
:100B60004D815E81B60103C0A6016D817E81C20107
:100B70000995E218F308F7FE06C029813A81C20EF2
:100B8000D31EE00EF11E8D819E8101969E838D8382
:100B9000D7CF26960FB6F894DEBF0FBECDBFDF913C
:100BA000CF911F910F91FF90EF90DF90CF90BF906A
:100BB000AF909F908F907F906F905F904F903F90FD
:100BC0002F90089581E090E030917301209172019F
:100BD000321710F480E090E0919581959109089585
:100BE0008091730190917201891730F48F5F809327
:100BF000730180E090E008958FEF9FEF089580915A
:100C0000720190E020917301821B9109089508956B
:100C1000CF92DF92EF92FF920F931F93CF93DF93C8
:100C20006C01EB017B01E40EF51E00E010E0CE1537
:100C3000DF0561F06991D601ED91FC910190F081A1
:100C4000E02DC6010995080F191FF1CFC801DF91EA
:100C5000CF911F910F91FF90EF90DF90CF9008956B
:100C60008F929F92AF92BF92CF92DF92EF92FF92BC
:100C70000F931F93CF93DF935C014B016A01E9014E
:100C800077FD53C0DC0118968D919C9119976817D8
:100C900079070CF04AC0209709F447C037FF07C016
:100CA000C9010196C80ED91ED195C195D109F5018A
:100CB00082859385C816D906C4F5A6014C0F5D1F21
:100CC0009A012150310937FD30C0D7FE03C0EA0137
:100CD000C12CD12C281739071CF0EC01CC19DD09E7
:100CE000D501ED91FC910680F781E02DC5010995B4
:100CF00078018E0121E030E0A601B401C5010E9417
:100D00000D11D501ED91FC910288F389E02DC5010B
:100D1000DF91CF911F910F91FF90EF90DF90CF90D7
:100D2000BF90AF909F908F900994DF91CF911F91CA
:100D30000F91FF90EF90DF90CF90BF90AF909F907A
:100D40008F9008958F929F92AF92BF92CF92DF9231
:100D5000EF92FF920F931F93CF93DF935C016B0190
:100D60004A01E90157FD53C0DC011A968D919C910F
:100D70001B97481759070CF04AC0209709F447C041
:100D800037FF07C0C9010196C80ED91ED195C1957C
:100D9000D109F50180859185C816D906C4F5A6014B
:100DA0004C0F5D1F9A012150310937FD30C0D7FE2D
:100DB00003C0EA01C12CD12C281739071CF0EC0123
:100DC000CC19DD09D501ED91FC910680F781E02D6C
:100DD000C5010995780101E010E09E01A401B6016A
:100DE000C5010E940D11D501ED91FC910288F38996
:100DF000E02DC501DF91CF911F910F91FF90EF90F2
:100E0000DF90CF90BF90AF909F908F900994DF912B
:100E1000CF911F910F91FF90EF90DF90CF90BF90F7
:100E2000AF909F908F900895EF92FF920F931F9332
:100E3000CF93DF9377FD34C0DC011896ED91FC91E0
:100E400019976E177F0764F52115310549F137FFB2
:100E500007C0F90131964E0F5F1F31952195310979
:100E6000DC011A96ED91FC911B974E175F07C4F4B5
:100E7000EA01C20FD31FDE011197B7FD11C057FF62
:100E800003C09E0140E050E0AE17BF071CF09F0179
:100E9000241B350B7801890121E030E00E940D11FF
:100EA000DF91CF911F910F91FF90EF900895EF92F6
:100EB000FF920F931F93CF93DF9357FD33C0DC0155
:100EC0001A96ED91FC911B974E175F075CF5211563
:100ED000310541F137FF07C0F90131966E0F7F1FD1
:100EE000319521953109DC011896ED91FC91199706
:100EF0006E177F07BCF4EB01C20FD31FDE01119701
:100F0000B7FD10C077FF03C09E0160E070E0AE1730
:100F1000BF071CF09F01261B370B780101E010E092
:100F20000E940D11DF91CF911F910F91FF90EF90D3
:100F300008958F929F92AF92BF92CF92DF92EF92DD
:100F4000FF920F931F93CF93DF9347012115310534
:100F500009F44DC00115110509F449C037FF07C058
:100F6000F90131966E0F7F1F319521953109DC0112
:100F70001896AD90BC9019976A157B05C4F517FFBC
:100F800007C0F80131964E0F5F1F119501951109A9
:100F9000DC011A96ED91FC911B974E175F073CF50B
:100FA0006B01C20ED31EE6012197D7FD20C07A0146
:100FB000E00EF11ED7011197B7FD19C077FF03C0EE
:100FC000960160E070E057FF03C0870140E050E009
:100FD000CA15DB051CF09501261B370BAE17BF07A2
:100FE0001CF08F01041B150B74010E940D11DF9181
:100FF000CF911F910F91FF90EF90DF90CF90BF9016
:10100000AF909F908F900895EF92FF920F931F9350
:101010002115310529F00115110511F00E94BB11B0
:101020001F910F91FF90EF9008958F929F92AF9232
:10103000CF92EF92FF920F931F93CF93DF93EC0128
:10104000262F898D9A8D009709F042C06A3059F495
:101050001D861C862D898E859F8538E0239F800DF7
:10106000911D112443C06D3009F4AAC08F898823D3
:10107000C9F03C898C859D8546E0349F800D911D8B
:101080001124488559854817590764F41D861C8624
:101090003D898E859F8548E0349F800D911D1124E8
:1010A0009F878E87EA88FB88088919894E855F8526
:1010B0006C857D85AD88CC88CE010E94500B2C8933
:1010C0008C859D8536E0239F800D911D11243EC0A7
:1010D0006A3079F41D861C862D89FC013696E491D0
:1010E0008E859F852E9F800D911D11249F878E8751
:1010F00067C06D3009F464C0FC0134963491631705
:1011000008F45EC03196E491E61708F459C0462F02
:10111000431B342FFC0132968590949047E0349F16
:10112000800C911C1124F401329634913196E49193
:10113000332311F0E1110DC0F4013496E4912C89B0
:101140008C859D85E29F800D911D11249D878C8744
:1011500037C0F401359644915F89552319F15C89B4
:10116000E32FF0E0E40FF11D47FDFA955E9FB0011B
:101170005F9F700D11244C855D85460F571F688554
:1011800079856417750774F41D861C863D89FC01FA
:101190003696E4918E859F853E9F800D911D11248A
:1011A0009F878E87EA88FB88088919894E855F8525
:1011B0006C857D85AD88CC88CE010E94500BBCCF5C
:1011C00081E090E0DF91CF911F910F91FF90EF9020
:1011D000CF90AF909F908F900895CF93DF93CB01E6
:1011E000EA01642F0E94AB0ECE01DF91CF910895EA
:1011F000CF93DF931F92CDB7DEB7698361E0CE0155
:1012000001960E94AB0E81E090E00F90DF91CF91AC
:1012100008950F931F93CF93DF93EC018B018DA95A
:10122000811109C01EBD0DB407FEFDCF0EBD0DB46A
:1012300007FEFDCF2FC08130E9F480E1E9A1FAA1DA
:10124000208117FF03C09DA1922B02C09EA1922373
:101250009083EBA1FCA120819FA1922B9083EBA115
:10126000FCA1208198A592239083000F111F81502B
:1012700029F710C0EF8DF8A11083CE010E948710CE
:10128000EF8DF8A10083CE01DF91CF911F910F91D7
:101290000C948710DF91CF911F910F910895AF9219
:1012A000BF92CF92DF92EF92FF920F931F93CF9353
:1012B000DF93EC0177FD38C0888599856817790739
:1012C0009CF557FD31C08A859B854817590764F501
:1012D00069017A015B01E881F9810680F781E02DDF
:1012E000CE010995E881F98106A0F7A1E02D01E082
:1012F00010E021E030E0A701B501CE010995B6016B
:10130000CE010E940909E881F9810288F389E02D64
:10131000CE01DF91CF911F910F91FF90EF90DF9061
:10132000CF90BF90AF900994DF91CF911F910F9113
:10133000FF90EF90DF90CF90BF90AF900895EF9225
:10134000FF920F931F93CF93DF93EC0177FD22C0A1
:101350008885998568177907ECF457FD1BC08A8545
:101360009B8548175907B4F47901E881F98106A0F3
:10137000F7A1E02D01E010E021E030E0CE01099579
:10138000B701CE01DF91CF911F910F91FF90EF90A8
:101390000C940909DF91CF911F910F91FF90EF906D
:1013A0000895FC0185A981110FC09CB59C7F9CBD4F
:1013B0009DB591609DBD9CB59F7D9CBD2CB5237F47
:1013C00095A1822F892B8CBD0895CF93DF93EC01DB
:1013D0000E94D1098FA987FD06C0EB8DFC8D9081FD
:1013E0008AA989238083DF91CF91089585ED809329
:1013F000BC008091BC0084FDFCCF10927401089564
:10140000CF93DF9390E0FC01EB50FA4F2491FC0165
:10141000ED5EF94F8491882361F190E0880F991F68
:10142000FC01E952FF4FC591D491FC01E75FF94FF0
:10143000A591B491611109C09FB7F8948881209556
:1014400082238883EC912E230BC0623061F49FB716
:10145000F8948881322F309583238883EC912E2B4A
:101460002C939FBF06C08FB7F894E8812E2B28835A
:101470008FBFDF91CF9108953FB7F89480917C01A1
:1014800090917D01A0917E01B0917F0126B5A89B2E
:1014900005C02F3F19F00196A11DB11D3FBFBA2F06
:1014A000A92F982F8827820F911DA11DB11DBC0166
:1014B000CD0142E0660F771F881F991F4A95D1F72B
:1014C0000895CF92DF92EF92FF92CF93DF936B015B
:1014D0007C010E943C0AEB01C114D104E104F10437
:1014E00079F00E943C0A6C1B7D0B683E7340A0F3B0
:1014F00081E0C81AD108E108F108C851DC4FECCFEF
:10150000DF91CF91FF90EF90DF90CF900895CF9231
:10151000DF92EF92FF920F931F93CF93DF93EC0133
:10152000162F6A01E22E0E94D1098FA987FD06C0FD
:10153000EB8DFC8D90818AA989238083ED8DFE8DB2
:1015400090818CA989238083612FCE010E94E913A9
:10155000ED8DFE8D90818BA9892B80838601F12CE6
:10156000C8018C199D098E159F053CF4F801619105
:101570008F01CE010E94E913F3CF8FA987FD06C02A
:10158000EB8DFC8D908189A9892B8083DF91CF9190
:101590001F910F91FF90EF90DF90CF900895CF9320
:1015A000DF931F92CDB7DEB7FC016370668B6230AC
:1015B00041F0633079F0613011F088E403C088E2D3
:1015C0000AC088E8898380EF90E09187808780E473
:1015D00091E008C088EE898380E491E0918780875C
:1015E00080EF90E09387828721E0AE014F5F5F4FED
:1015F00066E3CF010E94870A0F90DF91CF91089593
:10160000CF93DF93EC01ED8DFE8D90818CA9892322
:101610008083CE010E94E913ED8DFE8D90818BA910
:10162000892B8083DF91CF910895AF92BF92CF92A3
:10163000DF92EF92FF920F931F93CF93DF93EC0112
:101640005B016A01215031097901E60EF71E015054
:101650001109040F151F6AE20E94000BB501CE01AB
:101660000E940909B701CE010E9409096BE2CE016F
:101670000E94000BB601CE010E940909B801CE01FB
:101680000E9409096CE2CE01DF91CF911F910F9169
:10169000FF90EF90DF90CF90BF90AF900C94000B35
:1016A0002F923F924F925F926F927F928F929F9272
:1016B000AF92BF92CF92DF92EF92FF920F931F9360
:1016C000CF93DF93CDB7DEB76B970FB6F894DEBF3D
:1016D0000FBECDBF9B8F8A8F1B014A01D22E198767
:1016E00008873701A982DC0159962D913C915A97C0
:1016F0002115310509F0FFC018968D919C9119971D
:10170000681779070CF0E7C11A968D919C911B9789
:10171000481759070CF0DFC1EC2DF0E0FB83EA839A
:101720009B0146E0C49E200D311D11243D872C876E
:10173000121613060CF0CFC16A2D70E07B876A8702
:1017400083E0660F771F8A95E1F77F876E87CB016D
:10175000880D991D181619060CF0BDC158968C916C
:10176000811104C08FEA8D1508F4D394AA8DBB8D26
:10177000ED91FC9111970680F781E02DCD0109953F
:10178000B5E0DB9EC0011124EC2DF0E0F98BE88B75
:1017900091012B5F3F4F3B8B2A8B3D822C82210195
:1017A000AC01421953095D8B4C8B7981672F70E036
:1017B0007F8B6E8BC4010896998F888FEC89FD8989
:1017C000E40DF51DEB50FF4FD49054019F828E82A3
:1017D000D0FE16C0AA8DBB8DED91FC91B1E0CB126D
:1017E00009C02981213031F40084F185E02D28855C
:1017F000398519C00284F385E02DE884F9841DC081
:10180000488559854615570519F1AA8DBB8DED916F
:10181000FC91B1E0CB120DC02981213051F400843C
:10182000F185E02D9301A501B2018A8D9B8D09956B
:101830000FC00284F385E02D73010A851B852A8180
:101840003B814E815F816C817D818A8D9B8D099565
:10185000D6943FEFA31AB30A4E815F816E897F89C8
:10186000460F571F5F834E83888D998DA816B90642
:1018700009F0AECF9FEF491A590AAC81BD81E889C2
:10188000F989AE0FBF1FBD83AC832A893B894216FD
:10189000530609F093CF488559854615570509F435
:1018A000F8C0AA8DBB8DED91FC91B1E0CB1211C0B7
:1018B0002981213071F4B1016B5F7F4F0484F5857C
:1018C000E02D830128E030E0A4018A8D9B8D0995ED
:1018D000E0C06C857D854A815B81641B750B028449
:1018E000F385E02D73010E851F859A01A4018A8D71
:1018F0009B8D0995CEC0F9013496E491DE1AF90169
:10190000329685919491B7E0DB9E800D911D112454
:10191000F901259134913B8B2A8BFC01259134915F
:101920005901FC0132965490319634913C8732969D
:1019300074903196149141E04C1518F05981523051
:1019400068F0672D072C000C770B7D836C83812F4B
:10195000012E000C990B9B838A8304C01B821A8280
:101960001D821C82AA8DBB8DED91FC911197068082
:10197000F781E02DCD010995412CD12C612CF98105
:10198000EF2FF0E0FF83EE832C2D30E03B872A879A
:10199000A401410F511D17FD5A955F8B4E8BB1016C
:1019A000670D711D77FC7A95798F688F7C85671636
:1019B00008F06FC0262D30E04A815B81420F531F33
:1019C000AE81BF81A49FC001A59F900DB49F900DD3
:1019D0001124F401E80FF91FF98BE88B842D712C89
:1019E0004E895F89420F531F5D8B4C8B751408F035
:1019F0004DC051E0580F5E87877041F4C5010196D4
:101A0000EA89FB89EA0DFB1DD4905C01D7FE3AC040
:101A100061E0C61216C07981713099F4AA8DBB8D30
:101A2000ED91FC9111970084F185E02D2885398591
:101A30004C895D89688D798D670D711DCD01099582
:101A400021C08C819D81870D911DEA85FB858E9F2C
:101A5000B0018F9F700D9E9F700D1124620D731D3C
:101A6000AA8DBB8DED91FC9111970284F385E02D39
:101A7000E884F9840E811F812A853B85488959892C
:101A8000CD010995DD0C73948E85B0CF450C639420
:101A90008DCFAA8DBB8DED91FC9111970288F389B2
:101AA000E02DCD016B960FB6F894DEBF0FBECDBF13
:101AB000DF91CF911F910F91FF90EF90DF90CF902A
:101AC000BF90AF909F908F907F906F905F904F905E
:101AD0003F902F9009946B960FB6F894DEBF0FBE1F
:101AE000CDBFDF91CF911F910F91FF90EF90DF90CD
:101AF000CF90BF90AF909F908F907F906F905F90AE
:101B00004F903F902F9008951F920F920FB60F9213
:101B100011242F933F934F935F936F937F938F93F2
:101B20009F93AF93BF93EF93FF938091B900887F0A
:101B3000803609F49CC068F5883209F45BC090F4E3
:101B4000803109F454C038F4882309F4EFC0883098
:101B500009F44DC0EFC0883109F44CC0803209F45B
:101B60005DC0E8C0803409F468C048F4803309F4EB
:101B700055C0883309F0DEC08093C301D1C08035E1
:101B800009F44FC0883509F45DC0883409F0D2C02B
:101B9000CFC0883909F4C0C0A8F4883709F467C0F9
:101BA00038F4883609F463C0803709F460C0C2C0D5
:101BB000883809F4B1C0803909F45FC0803809F071
:101BC000B9C05BC0803B09F481C038F4803A09F4A5
:101BD00066C0883A09F47AC0ADC0803C09F4A0C060
:101BE000883C09F49DC0883B09F483C0A3C0809160
:101BF000E60110C09091E5018091E401981770F51D
:101C0000E091E50181E08E0F8093E501F0E0EC5377
:101C1000FE4F80818093BB0085EC7FC08093C30121
:101C200087C0E091E50181E08E0F8093E50180910E
:101C3000BB00F0E0EC53FE4F80839091E501809172
:101C4000E40167C0E091E50181E08E0F8093E5013A
:101C50008091BB00F0E0EC53FE4F808380917601D1
:101C6000811166C081E08093750184EA5AC083E0E7
:101C7000809374011092C201CFCF8091C201803253
:101C800008F04AC0E091C20181E08E0F8093C2014A
:101C90008091BB00F0E0EE55FE4F8083BDCF809178
:101CA000C201803230F4E091C201F0E0EE55FE4F07
:101CB00010820E94F6096091C20170E082EA91E010
:101CC000E0E0F0E009951092C2012AC084E0809320
:101CD00074011092A1011092A001E0E0F0E00995DA
:101CE0008091A001811105C081E08093A001109234
:101CF0008001E091A10181E08E0F8093A101F0E0CD
:101D0000E058FE4F80818093BB009091A1018091AB
:101D1000A001981708F480CF85E88093BC000AC022
:101D200085EC8093BC001092740104C01092C30132
:101D30000E94F609FF91EF91BF91AF919F918F9112
:101D40007F916F915F914F913F912F910F900FBEB7
:101D50000F901F901895613298F4209174012430EF
:101D600089F46093A001282FA0E8B1E0FC018E2F38
:101D7000821B861718F481918D93F9CF80E0089526
:101D800081E0089582E0089590E0FC01EF51FF4F5B
:101D90002491FC01EB50FA4F3491FC01ED5EF94FB8
:101DA000E491EE2309F43CC0222339F1233091F071
:101DB00038F42130A9F0223001F584B58F7D12C0AE
:101DC000263091F02730A1F02430B9F480918000C2
:101DD0008F7D03C0809180008F77809380000DC03D
:101DE00084B58F7784BD09C08091B0008F7703C020
:101DF0008091B0008F7D8093B000F0E0EE0FFF1F68
:101E0000E75FF94FA591B4919FB7F894611104C0B1
:101E10008C913095382302C0EC913E2B3C939FBFB0
:101E20000895BF92CF92DF92EF92FF920F931F938C
:101E3000CF93DF93EC016A017B01452B462B472BA7
:101E400031F4C12C22E1D22E2AE7E22EF12C8FA907
:101E500087FD07C061E00E94000A61E08FA90E942F
:101E6000C40E61E088AD0E94000A61E088AD0E9466
:101E7000C40E8DA981111DC0C9A2DAA2EBA2FCA2D9
:101E80001DA21EA21FA218A661E08AE00E94C40E35
:101E900061E08AE00E94000A8CB580618CBD8CB53F
:101EA00080648CBD61E08DE00E94000A61E08BE0FF
:101EB00016C08130B9F461E08AA50E94000A60E092
:101EC0008AA50E94C40E61E08CA50E94000A60E011
:101ED0008CA50E94C40E8BA587FD36C060E00E94D1
:101EE000000A32C003E116E0F12CF8018491E82FDA
:101EF000F0E0EE0FFF1FE75FF94F859194912F8D72
:101F000038A12817390741F461E08F2D0E94000A9B
:101F100060E08F2D0E94C40EF3940F5F1F4FF4E119
:101F2000FF12E3CF61E08EA50E94000A61E08EA55A
:101F30000E94C40E8FA587FD07C061E00E94000AC1
:101F400061E08FA50E94C40E8EA987FD21C061E0CB
:101F50000E94000A61E08EA90E94C40E64E670E04F
:101F600080E090E00E94610A60E08EA90E94C40EA9
:101F700064E670E080E090E00E94610A61E08EA972
:101F80000E94C40E68EC70E080E090E00E94610A5C
:101F90008EA987FF0DC020E040E050E061E0CE0157
:101FA0000E94870A66E970E080E090E00E94610A82
:101FB00088E6E82E80E0F82EC7010196F70114911B
:101FC000112309F448C0FC01B4900B2D0F77CE010A
:101FD0000E94D1098FA987FD06C0EB8DFC8D9081F1
:101FE0008AA989238083ED8DFE8D90818CA9892318
:101FF0008083612FCE010E94E913ED8DFE8D9081CB
:102000008BA9892B8083C12CD12C10E0C016D1065E
:1020100064F4F6013296EE0DFF1D6491CE010E942C
:10202000E913FFEFCF1ADF0AF1CF8FA987FD06C0B2
:10203000EB8DFC8D908189A9892B80830E5F1F4FCA
:10204000E00EF11EB7FEB8CF66E970E080E090E0E8
:102050000E94610AB1CF80EF90E09987888780E481
:1020600091E09B878A87DF91CF911F910F91FF901D
:10207000EF90DF90CF90BF9008951F920F920FB610
:102080000F9211242F933F938F939F93AF93BF93FE
:102090008091780190917901A0917A01B0917B01B2
:1020A0003091770123E0230F2D3720F40196A11DF5
:1020B000B11D05C026E8230F0296A11DB11D209376
:1020C00077018093780190937901A0937A01B0937E
:1020D0007B0180917C0190917D01A0917E01B09166
:1020E0007F010196A11DB11D80937C0190937D011C
:1020F000A0937E01B0937F01BF91AF919F918F918B
:102100003F912F910F900FBE0F901F901895FC01DB
:10211000A5A1B6A19C9182A589238C93A5A1B6A166
:102120009C9181A5892B8C930895CF93DF93EC012B
:1021300084E191E099838883FB01828193819B8371
:102140008A83848195819D838C83868197819F83F7
:102150008E838085918599878887828593859B87E3
:102160008A87848595859D878C87868597859F87B7
:102170008E8780899189998B888B828993899B8BA3
:102180008A8B84898C8B85898D8B86898E8B8789B8
:102190008F8B808D888F818D928D9A8F898F8CE126
:1021A00091E099838883838D948D9C8F8B8F858D0F
:1021B000968D9E8F8D8F82E17F96DE015F960190D6
:1021C0000D928A95E1F7FB0181A989AB82A98AABBF
:1021D00083A98BAB84A98CAB85A98DAB86A98EAB6B
:1021E00087A98FAB80AD88AF81AD92AD9AAF89AF33
:1021F00083AD94AD9CAF8BAF85AD8DAF86AD8EAF0B
:10220000FF9680819181A281B381EF968883998323
:10221000AA83BB83DF91CF9108958F929F92AF9253
:10222000BF92CF92DF92EF92FF920F931F93CF93C3
:10223000DF93EC014901BE2CAF2CE881F98106A0A7
:10224000F7A1E02D09959401D8010E943015611580
:1022500071058105910509F481C02DA921110FC0D7
:10226000615071098109910908F478C0AEBC0DB4C0
:1022700007FEFDCFBEBC0DB407FEFDCFF1CF213070
:1022800009F03FC0615071098109910908F466C0E5
:102290003A2D28E0E9A1FAA1508137FF03C04DA1F2
:1022A000452B02C04EA145234083EBA1FCA15081E8
:1022B0004FA1452B4083EBA1FCA1508148A54523AC
:1022C0004083330F215031F73B2D28E0E9A1FAA1DB
:1022D000508137FF03C04DA1452B02C04EA14523BD
:1022E0004083EBA1FCA150814FA1452B4083EBA182
:1022F000FCA1508148A545234083330F215031F77D
:10230000C1CFFE1017C0EF8DF8A1F0826B017C01E8
:10231000CC0CDD1CEE1CFF1CC114D104E104F10443
:10232000E9F0CE010E94871081E0C81AD108E108C7
:10233000F108F2CF6B017C01EF8DF8A1A082CE01F4
:102340000E948710EF8DF8A1B082CE010E94871005
:1023500021E0C21AD108E108F10871F7DF91CF91AD
:102360001F910F91FF90EF90DF90CF90BF90AF90B3
:102370009F908F9008958F929F92AF92BF92CF922D
:10238000DF92EF92FF920F931F93CF93DF934C0155
:10239000EB016A01590137FF07C0C9010196C80F57
:1023A000D91FB194A194B108F401A085B185CA17D1
:1023B000DB070CF058C017FF07C0C8010196C80E14
:1023C000D91E119501951109F40182859385C816CE
:1023D000D9060CF048C0FE01EA0DFB1DAF014150CB
:1023E000510957FD40C0B601600F711F9B0121507C
:1023F000310937FD38C0D7FF03C05F01C0E0D0E02E
:10240000D7FE03C08B01C12CD12C4A175B071CF0EF
:102410005D01AC1ABD0A281739071CF08C010C1994
:102420001D09D401ED91FC910680F781E02DC401D6
:1024300009959501A601BE01C4010E940D11D401A8
:10244000ED91FC910288F389E02DC401DF91CF91D9
:102450001F910F91FF90EF90DF90CF90BF90AF90C2
:102460009F908F900994DF91CF911F910F91FF90D2
:10247000EF90DF90CF90BF90AF909F908F90089596
:102480002F923F924F925F926F927F928F929F9284
:10249000AF92BF92CF92DF92EF92FF920F931F9372
:1024A000CF93DF93CDB7DEB7C355D1090FB6F894FC
:1024B000DEBF0FBECDBF6C0123EF31E026963FAFEC
:1024C0002EAF269728963FAF2EAF2897412C512C40
:1024D000812C912CF6017F966296FFAFEEAF62974A
:1024E0009601215C3F4F64963FAF2EAF6497809179
:1024F000750390917603881699060CF04CC12696C8
:102500002EAC3FAC2697612C712CA12CB12C82E013
:1025100090E02A969FAF8EAF2A97F401E170FF27D3
:102520002C96FFAFEEAF2C979401215031092E96D7
:102530003FAF2EAF2E97C4010196FC01E170FF273B
:102540006096FFAFEEAF609780917703909178032C
:10255000A816B9060CF006C1A114B10481F08114CB
:10256000910469F00297A816B9064CF4809175039E
:10257000909176030297881699060CF47FC0F601B5
:10258000828193819C838B83848195819E838D83BB
:102590008681978198878F83808591859A8789879F
:1025A000828593859C878B87848595859E878D877B
:1025B00086859785988B8F87808991899A8B898B5F
:1025C000828993899C8B8B8B84898D8B85898E8B5B
:1025D00086898F8B8789888F808D898F818D928D59
:1025E0009B8F8A8F838D948D9D8F8C8F858D968DFB
:1025F0009F8F8E8F82E16296EEADFFAD6297DE0116
:10260000909601900D928A95E1F7F60181A98AAB27
:1026100082A98BAB83A98CAB84A98DAB85A98EAB2A
:1026200086A98FAB87A988AF80AD89AF81AD92AD08
:102630009BAF8AAF83AD94AD9DAF8CAF85AD8EAFB0
:1026400086AD8FAF6496EEADFFAD649780819181CA
:10265000A281B38124968CAF9DAFAEAFBFAF24975C
:1026600028E431E03A83298321E030E0F10131832D
:1026700020833FEEE32E3BE7F32E54C02A968EAD27
:102680009FAD2A97A816B90649F56096EEADFFAD45
:102690006097EF2B19F1B601CE0101960E949510BB
:1026A00028E431E03A83298321E030E0F1013183ED
:1026B00020832FEEE22E2BE7F22E04E110E024E13E
:1026C00030E0A301B201CE0101960E94BB11C50109
:1026D00002962A969FAF8EAF2A973AC02C96EEADFF
:1026E000FFAD2C97EF2B49F12E962EAD3FAD2E97D7
:1026F0002930310510F5C5010397099748F5A0FE6B
:1027000027C0B601CE0101960E94951088E491E0A1
:102710009A83898324E030E0F10131832083E12C26
:1027200098E7F92E04E110E024E130E0A301B201C2
:10273000CE0101960E94BB110BC0F501EE0FFF1FE9
:1027400028968EAD9FAD2897E80FF91F1182108251
:102750009FEFA91AB90AE0E22E0E311CF4E16F0EC8
:10276000711CF2CE2FEF821A920A26968EAD9FAD83
:102770002697029626969FAF8EAF269794E1490E34
:10278000511C2896EEADFFAD2897B0962896FFAF66
:10279000EEAF2897ACCECD5ADF4F0FB6F894DEBF20
:1027A0000FBECDBFDF91CF911F910F91FF90EF90A2
:1027B000DF90CF90BF90AF909F908F907F906F9061
:1027C0005F904F903F902F90089560E070E00C94E0
:1027D0002C04FC0185A9811105C06EBD0DB407FE56
:1027E000FDCF08958130E1F488E0A1A1B2A12C9140
:1027F00067FF03C095A1922B02C096A192239C93E0
:10280000A3A1B4A12C9197A1922B9C93660FA3A195
:10281000B4A12C9190A592239C93815031F70895F7
:10282000A78DB0A16C93CF010C948710CF93DF9349
:10283000CDB7DEB7C354D1090FB6F894DEBF0FBED3
:10284000CDBF10927301109272011092700110921C
:1028500071011092740181E08093760110927501EC
:1028600061E082E10E94C40E61E083E10E94C40E37
:102870008091B9008E7F8093B9008091B9008D7FDF
:102880008093B90088E48093B80085E48093BC000D
:1028900040E050E0BA0189E793E00E94110F69E738
:1028A00073E0CE0101960E94951008E411E01A83AE
:1028B0000983CE0101960E94E51369E773E0CE011A
:1028C00001960E9495101A830983CE0101960E94F9
:1028D0004012FFCFE7EEF1E01382128288EE93E020
:1028E000A0E0B0E084839583A683B78384E091E081
:1028F00091838083A9E7B3E013961C921E921297EE
:1029000020EF30E015963C932E93149780E491E0ED
:1029100017969C938E93169719963C932E9318971F
:102920001B969C938E931A9756961C9256971D96BB
:102930001C921E921C971F961C921E921E9781E05D
:1029400055968C93559754968C9354972FEF3FEF51
:1029500053963C932E93529751963C932E935097B7
:1029600057968C93579758961C9258975A961C9244
:102970001E925997D5961C92D5978FEFD6968C9329
:10298000D6978AE0D7968C93D79789E0D8968C9380
:10299000D897DA961C921E92D997DC961C921E92BA
:1029A000DB97DD961C92DD97DE961C92DE971092E7
:1029B000B8031092B9031092BA031092BB038CEBC8
:1029C00093E090969C938E935F97ECE1F6E0E49110
:1029D000F0E0EE0FFF1FE75FF94F859194915E964F
:1029E0009C938E935D97EEEFF5E08491D3968C9354
:1029F000D397EDE1F6E0E491F0E0EE0FFF1FE75F23
:102A0000F94F259134915C963C932E935B97EFEFB1
:102A1000F5E0E491D196EC93D197E095D296EC93C2
:102A2000D297E82FE095D496EC93D49788E491E080
:102A30008D939C9384E190E090937403809373034F
:102A40008CE090E0909376038093750380E190E0B2
:102A500090937803809377030895F8940C94541519
:102A60000E943815332312F48A1B9B0B0C944915D2
:102A7000A29FB001B39FC001A39F700D811D1124BF
:102A8000911DB29F700D811D1124911D08950E940A
:102A90003815B7FF0895821B930B0895EE0FFF1FA3
:0C2AA0000590F491E02D0994F894FFCF0C
:102AAC0000000000F808ED08FF05F005E205000540
:102ABC0000000000070608060000000015080806C4
:102ACC004F09E5099F0999071407570730053F037C
:102ADC004B034A033006A20604082C04BF03600310
:102AEC000706070600000000150808064F09E5094F
:102AFC009F0999071407570730053F03CF0A4A036C
:102B0C003006A20604082C04BF036003110F150B3A
:00000001FF
