:100000000C9415030C943D030C943D030C943D0398
:100010000C943D030C943D030C943D030C943D0360
:100020000C943D030C943D030C943D030C943D0350
:100030000C943D030C943D030C943D030C943D0340
:100040000C941A0C0C943D030C943D030C943D034A
:100050000C943D030C943D030C943D030C943D0320
:100060000C9438100C943D03EF03038002CF03007F
:10007000C130ED0464031281E803850078CB0539B3
:100080002C003402F70120EA020000C00123C10164
:1000900010C5023E28C701863601483701003A01E3
:1000A00055B1020018B603088227F20100260101AB
:1000B000E00F0F312B0C0E084EF1370710030E091D
:1000C00000E10F000E1403110731C148080F0C3175
:1000D000360F118029800000000000240027002A2C
:1000E00000000000070002010000030406000000F9
:1000F000000000000000000000003E5B4F5B3E3E41
:100100006B4F6B3E1C3E7C3E1C183C7E3C181C57C3
:100110007D571C1C5E7F5E1C00183C1800FFE7C367
:10012000E7FF0018241800FFE7DBE7FF30483A0636
:100130000E2629792926407F050507407F05253FA2
:100140005A3CE73C5A7F3E1C1C08081C1C3E7F148E
:10015000227F22145F5F005F5F06097F017F0066D8
:1001600089956A606060606094A2FFA29408047E32
:10017000040810207E201008082A1C08081C2A08E1
:10018000081E101010100C1E0C1E0C30383E38309B
:10019000060E3E0E06000000000000005F0000009A
:1001A00007000700147F147F14242A7F2A122313C8
:1001B00008646236495620500008070300001C22DC
:1001C00041000041221C002A1C7F1C2A08083E080E
:1001D000080080703000080808080800006060000F
:1001E00020100804023E5149453E00427F40007203
:1001F000494949462141494D331814127F1027457A
:100200004545393C4A494931412111090736494997
:100210004936464949291E000014000000403400B8
:10022000000008142241141414141400412214086C
:1002300002015909063E415D594E7C1211127C7F24
:10024000494949363E414141227F4141413E7F4932
:100250004949417F090909013E414151737F08081D
:10026000087F00417F41002040413F017F08142268
:10027000417F404040407F021C027F7F0408107F86
:100280003E4141413E7F090909063E4151215E7FC1
:1002900009192946264949493203017F01033F4094
:1002A00040403F1F2040201F3F4038403F6314081C
:1002B000146303047804036159494D43007F4141AD
:1002C000410204081020004141417F040201020460
:1002D0004040404040000307080020545478407FCD
:1002E000284444383844444428384444287F385407
:1002F00054541800087E090218A4A49C787F0804AE
:10030000047800447D40002040403D007F10284498
:100310000000417F40007C047804787C0804047865
:100320003844444438FC1824241818242418FC7C2D
:1003300008040408485454542404043F44243C4012
:1003400040207C1C2040201C3C4030403C44281075
:1003500028444C9090907C4464544C4400083641AE
:10036000000000770000004136080002010204028C
:100370003C2623263C1EA1A161123A4040207A3837
:100380005454555921555579412254547842215598
:1003900054784020545579400C1E527212395555EC
:1003A0005559395454545939555454580000457CC2
:1003B000410002457D420001457C407D1211127DC5
:1003C000F0282528F07C545545002054547C547C5A
:1003D0000A097F4932494949323A4444443A324A47
:1003E0004848303A4141217A3A42402078009DA065
:1003F000A07D3D4242423D3D4040403D3C24FF24E3
:1004000024487E4943662B2FFC2F2BFF0929F62019
:10041000C0887E090320545479410000447D413056
:1004200048484A32384040227A007A0A0A727D0DE2
:1004300019317D2629292F28262929292630484D9A
:100440004020380808080808080808382F10C8ACE9
:10045000BA2F102834FA00007B000008142A142256
:1004600022142A14085500550055AA55AA55AAFF6A
:1004700055FF55FF000000FF00101010FF0014147E
:1004800014FF001010FF00FF1010F010F0141414EF
:10049000FC001414F700FF0000FF00FF1414F40424
:1004A000FC141417101F10101F101F1414141F0019
:1004B000101010F0000000001F101010101F10107E
:1004C0001010F010000000FF10101010101010108D
:1004D00010FF10000000FF140000FF00FF00001FCD
:1004E00010170000FC04F414141710171414F4046B
:1004F000F40000FF00F714141414141414F700F798
:10050000141414171410101F101F141414F41410C2
:1005100010F010F000001F101F0000001F1400005A
:1005200000FC140000F010F01010FF10FF14141461
:10053000FF141010101F00000000F010FFFFFFFF5D
:10054000FFF0F0F0F0F0FFFFFF0000000000FFFF01
:100550000F0F0F0F0F3844443844FC4A4A4A347E88
:1005600002020606027E027E026355494163384458
:10057000443C04407E201E2006027E020299A5E72C
:10058000A5991C2A492A1C4C7201724C304A4D4DC7
:10059000303048784830BC625A463D3E49494900AF
:1005A0007E0101017E2A2A2A2A2A44445F444440CB
:1005B000514A444040444A51400000FF0103E0805A
:1005C000FF000008086B6B083612362436060F0948
:1005D0000F06000018180000001010003040FF0146
:1005E00001001F01011E00191D1712003C3C3C3C7C
:1005F00000000000000102040810204080010204F5
:100600000810200102040810200000000025002826
:10061000002B000404040404040404020202020285
:1006200002030303030303003A1611241FBECFEF96
:10063000D8E0DEBFCDBF11E0A0E0B1E0ECE6FEE225
:1006400002C005900D92A839B107D9F724E0A8E9B6
:10065000B1E001C01D92A933B207E1F713E0C5E193
:10066000D3E004C02197FE010E942E17C431D107A8
:10067000C9F70E9452140C940D170C940000FC0151
:1006800087A987FD06C0A38DB48D9C9181A9892B74
:100690008C9308950895FC016370668B8481958125
:1006A00026813781613039F0633029F09187808766
:1006B000338722870895318720879387828708951B
:1006C0006F927F928F929F92AF92BF92CF92DF9262
:1006D000EF92FF920F931F93CF93DF93EC014B01A7
:1006E0005A0169013801E881F9810680F781E02D1E
:1006F0000995E881F9810684F785E02D8701960147
:10070000A501B401CE010995A501460D571D415023
:100710005109E881F9810684F785E02D9601B4013D
:10072000CE010995E881F9810484F585E02D9301D6
:10073000A501B401CE010995C80CD91CB6016150C0
:100740007109E881F9810484F585E02D9301A50103
:10075000CE010995E881F9810288F389E02DCE0167
:10076000DF91CF911F910F91FF90EF90DF90CF908D
:10077000BF90AF909F908F907F906F9009948F92D1
:100780009F92AF92BF92CF92DF92EF92FF920F9320
:100790001F93CF93DF934C016B015A01E901DC01F8
:1007A000ED91FC916217730781F40417150724F487
:1007B0008B2D5801042F182F0A191B0998012F5F40
:1007C0003F4F008CF18DE02D12C04017510709F505
:1007D0002617370724F48D2D6901C62FD82F9E01C7
:1007E0002C193D092F5F3F4F028CF38DE02D8701BF
:1007F000A501B601C4010995DF91CF911F910F9119
:10080000FF90EF90DF90CF90BF90AF909F908F9030
:1008100008950680F781E02D0995D401ED91FC91B2
:100820000088F189E02D9E01A501B601C40109955A
:10083000D401ED91FC910288F389E02DC401DF9190
:10084000CF911F910F91FF90EF90DF90CF90BF90CD
:10085000AF909F908F900994EF92FF920F931F9308
:10086000DC011A960D911C911B9718962D913C91C5
:100870001997ED91FC91048CF58DE02D7B0140E002
:1008800050E060E070E009951F910F91FF90EF90AC
:1008900008954F925F926F927F928F929F92AF9244
:1008A000BF92CF92DF92EF92FF920F931F93CF935D
:1008B000DF936C012B015A0139014801DC01ED91F4
:1008C000FC910680F781E02D0995E201640C751C0E
:1008D000D601ED91FC91C615D7055CF40484F5852D
:1008E000E02D87019401A501BE01C601099521965D
:1008F000EFCF0288F389E02DC601DF91CF911F91E0
:100900000F91FF90EF90DF90CF90BF90AF909F90AE
:100910008F907F906F905F904F9009948F929F92ED
:10092000AF92BF92CF92DF92EF92FF920F931F93FD
:10093000CF93DF93EC015B014A016901E881F98102
:100940000680F781E02D099595012C0D3D1D215064
:100950003109E881F9810088F189E02D780184016D
:10096000A401B501CE010995E881F9810288F389D6
:10097000E02DCE01DF91CF911F910F91FF90EF906D
:10098000DF90CF90BF90AF909F908F9009948F92FF
:100990009F92AF92BF92CF92DF92EF92FF920F930E
:1009A0001F93CF93DF93EC015B014A01690178014A
:1009B000E881F9810680F781E02D0995C80CD91CE2
:1009C000860101501109E881F9810088F189E02D43
:1009D0009501A401B501CE010995E881F98102884C
:1009E000F389E02DCE01DF91CF911F910F91FF9000
:1009F000EF90DF90CF90BF90AF909F908F90099431
:100A00000895EF92FF920F931F93DC01ED91FC91FB
:100A1000048CF58DE02D09951F910F91FF90EF90BB
:100A200008950F931F93DC01ED91FC91028CF38DDF
:100A3000E02D09951F910F9108950F931F93DC01ED
:100A4000ED91FC91008CF18DE02D09951F910F9196
:100A50000895DC01ED91FC910480F581E02D09946D
:100A60002F923F924F925F926F927F928F929F92BE
:100A7000AF92BF92CF92DF92EF92FF920F931F93AC
:100A8000CF93DF9300D000D000D0CDB7DEB72C01DC
:100A90007E836D836A015901C801FC82EB824801A3
:100AA000841A950A97FE03C09194819491083501A8
:100AB0002D813E81621A730A77FE03C0719461949E
:100AC0007108681479045CF43A2D2B2D5C01832F96
:100AD000922F3D812E81DE82CD82C32ED22EAD811A
:100AE000BE81AA16BB065CF43C2D2D2D6C01832F14
:100AF000922F3D812E81BE82AD82A32EB22E850122
:100B00002D813E81021B130B1C012C183D0837FE62
:100B100003C0319421943108780117FF03C03FEFDF
:100B2000E31AF30AF594E794C816D9062CF08FEF70
:100B30009FEF9A83898304C0A1E0B0E0BA83A983C0
:100B40002D813E81A216B30624F1D201ED91FC91D4
:100B50000084F185E02D2B813C816814790424F414
:100B60004D815E81B60103C0A6016D817E81C20107
:100B70000995E218F308F7FE06C029813A81C20EF2
:100B8000D31EE00EF11E8D819E8101969E838D8382
:100B9000D7CF26960FB6F894DEBF0FBECDBFDF913C
:100BA000CF911F910F91FF90EF90DF90CF90BF906A
:100BB000AF909F908F907F906F905F904F903F90FD
:100BC0002F900895E091C9018091C801E81730F491
:100BD000F0E0E855FE4F808190E008958FEF9FEFA1
:100BE00008959091C9018091C801981750F4E92F98
:100BF000F0E0E855FE4F208130E09F5F9093C901FF
:100C000002C02FEF3FEFC90108958091C80190E025
:100C10002091C901821B910908950895CF92DF9216
:100C2000EF92FF920F931F93CF93DF936C01EB0131
:100C30007B01E40EF51E00E010E0CE15DF0561F04B
:100C40006991D601ED91FC910190F081E02DC601F2
:100C50000995080F191FF1CFC801DF91CF911F919E
:100C60000F91FF90EF90DF90CF9008953FB7F894E9
:100C70008091A4019091A501A091A601B091A70136
:100C800026B5A89B05C02F3F19F00196A11DB11DE7
:100C90003FBFBA2FA92F982F8827820F911DA11D22
:100CA000B11DBC01CD0142E0660F771F881F991F5F
:100CB0004A95D1F70895CF92DF92EF92FF92CF93AA
:100CC000DF936B017C010E943606EB01C114D10455
:100CD000E104F10479F00E9436066C1B7D0B683E3E
:100CE0007340A0F381E0C81AD108E108F108C851A7
:100CF000DC4FECCFDF91CF91FF90EF90DF90CF9062
:100D00000895FC0185A981110FC09CB59C7F9CBDF5
:100D10009DB591609DBD9CB59F7D9CBD2CB5237FED
:100D200095A1822F892B8CBD0895BF92CF92DF921F
:100D3000EF92FF920F931F93CF93DF93EC016A0121
:100D40007B01452B462B472B31F4C12C22E1D22EBF
:100D50002AE7E22EF12C8FA987FD07C061E00E94EF
:100D6000E31161E08FA90E94781161E088AD0E94D3
:100D7000E31161E088AD0E9478118DA981111DC039
:100D8000C9A2DAA2EBA2FCA21DA21EA21FA218A653
:100D900061E08AE00E94781161E08AE00E94E3113C
:100DA0008CB580618CBD8CB580648CBD61E08DE0BC
:100DB0000E94E31161E08BE016C08130B9F461E07C
:100DC0008AA50E94E31160E08AA50E94781161E083
:100DD0008CA50E94E31160E08CA50E9478118BA580
:100DE00087FD36C060E00E94E31132C003E116E0E7
:100DF000F12CF8018491E82FF0E0EE0FFF1FE75F80
:100E0000F94F859194912F8D38A12817390741F416
:100E100061E08F2D0E94E31160E08F2D0E94781118
:100E2000F3940F5F1F4FF4E1FF12E3CF61E08EA553
:100E30000E94E31161E08EA50E9478118FA587FDC5
:100E400007C061E00E94E31161E08FA50E94781164
:100E50008EA987FD21C061E00E94E31161E08EA9A7
:100E60000E94781164E670E080E090E00E945B06EA
:100E700060E08EA90E94781164E670E080E090E066
:100E80000E945B0661E08EA90E94781168EC70E018
:100E900080E090E00E945B068EA987FF2BC0CE0108
:100EA0000E9481068FA987FD06C0EB8DFC8D908185
:100EB0008AA989238083ED8DFE8D90818CA9892359
:100EC000808361E0CE010E94C20DED8DFE8D908188
:100ED0008BA9892B80838FA987FD06C0EB8DFC8DA4
:100EE000908189A9892B808366E970E080E090E099
:100EF0000E945B0688E6E82E80E0F82EC701019686
:100F0000F7011491112309F448C0FC01B4900B2D92
:100F10000F77CE010E9481068FA987FD06C0EB8D59
:100F2000FC8D90818AA989238083ED8DFE8D90812F
:100F30008CA989238083612FCE010E94C20DED8D83
:100F4000FE8D90818BA9892B8083C12CD12C10E040
:100F5000C016D10664F4F6013296EE0DFF1D6491C1
:100F6000CE010E94C20DFFEFCF1ADF0AF1CF8FA989
:100F700087FD06C0EB8DFC8D908189A9892B80832C
:100F80000E5F1F4FE00EF11EB7FEB8CF66E970E0AE
:100F900080E090E00E945B06B1CF80EF90E09987FF
:100FA000888780E491E09B878A87DF91CF911F91AA
:100FB0000F91FF90EF90DF90CF90BF900895CF9367
:100FC000DF93EC010E9481068FA987FD06C0EB8D9F
:100FD000FC8D90818AA989238083DF91CF91089528
:100FE0008F929F92AF92BF92CF92DF92EF92FF9239
:100FF0000F931F93CF93DF935C014B016A01E901CB
:1010000077FD53C0DC0118968D919C911997681754
:1010100079070CF04AC0209709F447C037FF07C092
:10102000C9010196C80ED91ED195C195D109F50106
:1010300082859385C816D906C4F5A6014C0F5D1F9D
:101040009A012150310937FD30C0D7FE03C0EA01B3
:10105000C12CD12C281739071CF0EC01CC19DD0963
:10106000D501ED91FC910680F781E02DC501099530
:1010700078018E0121E030E0A601B401C5010E9493
:10108000F412D501ED91FC910288F389E02DC501A0
:10109000DF91CF911F910F91FF90EF90DF90CF9054
:1010A000BF90AF909F908F900994DF91CF911F9147
:1010B0000F91FF90EF90DF90CF90BF90AF909F90F7
:1010C0008F9008958F929F92AF92BF92CF92DF92AE
:1010D000EF92FF920F931F93CF93DF935C016B010D
:1010E0004A01E90157FD53C0DC011A968D919C918C
:1010F0001B97481759070CF04AC0209709F447C0BE
:1011000037FF07C0C9010196C80ED91ED195C195F8
:10111000D109F50180859185C816D906C4F5A601C7
:101120004C0F5D1F9A012150310937FD30C0D7FEA9
:1011300003C0EA01C12CD12C281739071CF0EC019F
:10114000CC19DD09D501ED91FC910680F781E02DE8
:10115000C5010995780101E010E09E01A401B601E6
:10116000C5010E94F412D501ED91FC910288F3892A
:10117000E02DC501DF91CF911F910F91FF90EF906E
:10118000DF90CF90BF90AF909F908F900994DF91A8
:10119000CF911F910F91FF90EF90DF90CF90BF9074
:1011A000AF909F908F900895EF92FF920F931F93AF
:1011B000CF93DF9377FD34C0DC011896ED91FC915D
:1011C00019976E177F0764F52115310549F137FF2F
:1011D00007C0F90131964E0F5F1F319521953109F6
:1011E000DC011A96ED91FC911B974E175F07C4F432
:1011F000EA01C20FD31FDE011197B7FD11C057FFDF
:1012000003C09E0140E050E0AE17BF071CF09F01F5
:10121000241B350B7801890121E030E00E94F41293
:10122000DF91CF911F910F91FF90EF900895EF9272
:10123000FF920F931F93CF93DF9357FD33C0DC01D1
:101240001A96ED91FC911B974E175F075CF52115DF
:10125000310541F137FF07C0F90131966E0F7F1F4D
:10126000319521953109DC011896ED91FC91199782
:101270006E177F07BCF4EB01C20FD31FDE0111977D
:10128000B7FD10C077FF03C09E0160E070E0AE17AD
:10129000BF071CF09F01261B370B780101E010E00F
:1012A0000E94F412DF91CF911F910F91FF90EF9068
:1012B00008958F929F92AF92BF92CF92DF92EF925A
:1012C000FF920F931F93CF93DF93470121153105B1
:1012D00009F44DC00115110509F449C037FF07C0D5
:1012E000F90131966E0F7F1F319521953109DC018F
:1012F0001896AD90BC9019976A157B05C4F517FF39
:1013000007C0F80131964E0F5F1F11950195110925
:10131000DC011A96ED91FC911B974E175F073CF587
:101320006B01C20ED31EE6012197D7FD20C07A01C2
:10133000E00EF11ED7011197B7FD19C077FF03C06A
:10134000960160E070E057FF03C0870140E050E085
:10135000CA15DB051CF09501261B370BAE17BF071E
:101360001CF08F01041B150B74010E94F412DF9115
:10137000CF911F910F91FF90EF90DF90CF90BF9092
:10138000AF909F908F900895EF92FF920F931F93CD
:101390002115310529F00115110511F00E94A21344
:1013A0001F910F91FF90EF9008958F929F92AF92AF
:1013B000CF92EF92FF920F931F93CF93DF93EC01A5
:1013C000262F898D9A8D009709F042C06A3059F412
:1013D0001D861C862D898E859F8538E0239F800D74
:1013E000911D112443C06D3009F4AAC08F89882350
:1013F000C9F03C898C859D8546E0349F800D911D08
:101400001124488559854817590764F41D861C86A0
:101410003D898E859F8548E0349F800D911D112464
:101420009F878E87EA88FB88088919894E855F85A2
:101430006C857D85AD88CC88CE010E94EF0D2C890E
:101440008C859D8536E0239F800D911D11243EC023
:101450006A3079F41D861C862D89FC013696E4914C
:101460008E859F852E9F800D911D11249F878E87CD
:1014700067C06D3009F464C0FC0134963491631781
:1014800008F45EC03196E491E61708F459C0462F7F
:10149000431B342FFC0132968590949047E0349F93
:1014A000800C911C1124F401329634913196E49110
:1014B000332311F0E1110DC0F4013496E4912C892D
:1014C0008C859D85E29F800D911D11249D878C87C1
:1014D00037C0F401359644915F89552319F15C8931
:1014E000E32FF0E0E40FF11D47FDFA955E9FB00198
:1014F0005F9F700D11244C855D85460F571F6885D1
:1015000079856417750774F41D861C863D89FC0176
:101510003696E4918E859F853E9F800D911D112406
:101520009F878E87EA88FB88088919894E855F85A1
:101530006C857D85AD88CC88CE010E94EF0DBCCF37
:1015400081E090E0DF91CF911F910F91FF90EF909C
:10155000CF90AF909F908F900895CF92DF92EF92AF
:10156000FF920F931F93CF93DF937C01CB018A01EE
:1015700020913402222389F0EB016B01C40ED51EA9
:10158000CC15DD0569F06991D701ED91FC910190D1
:10159000F081E02DC7010995F3CF642F0E945F1100
:1015A000C801DF91CF911F910F91FF90EF90DF90D5
:1015B000CF900895CF93DF931F92CDB7DEB76983A5
:1015C000209134022223D1F020915702203240F0A2
:1015D00021E030E0FC013383228380E090E015C0FD
:1015E00080913502E82FF0E0EA5CFD4F998190830D
:1015F0008F5F809335028093570205C061E0CE0172
:1016000001960E945F1181E090E00F90DF91CF91F1
:101610000895FC01A5A1B6A19C9182A589238C9374
:10162000A5A1B6A19C9181A5892B8C9308950F93B8
:101630001F93CF93DF93EC018B018DA9811109C01A
:101640001EBD0DB407FEFDCF0EBD0DB407FEFDCFD0
:101650002FC08130E9F480E1E9A1FAA1208117FFD0
:1016600003C09DA1922B02C09EA192239083EBA167
:10167000FCA120819FA1922B9083EBA1FCA1208152
:1016800098A592239083000F111F815029F710C055
:10169000EF8DF8A11083CE010E94090BEF8DF8A108
:1016A0000083CE01DF91CF911F910F910C94090B14
:1016B000DF91CF911F910F910895AF92BF92CF927A
:1016C000DF92EF92FF920F931F93CF93DF93EC0182
:1016D0005B016A01215031097901E60EF71E0150C4
:1016E0001109040F151F6AE20E942310B501CE01F3
:1016F0000E94170BB701CE010E94170B6BE2CE01BF
:101700000E942310B601CE010E94170BB801CE0132
:101710000E94170B6CE2CE01DF91CF911F910F91C8
:10172000FF90EF90DF90CF90BF90AF900C9423107C
:10173000AF92BF92CF92DF92EF92FF920F931F93DF
:10174000CF93DF93EC0177FD38C0888599856817C2
:1017500079079CF557FD31C08A859B854817590745
:1017600064F569017A015B01E881F9810680F781FE
:10177000E02DCE010995E881F98106A0F7A1E02DC1
:1017800001E010E021E030E0A701B501CE010995AC
:10179000B601CE010E94170BE881F9810288F38916
:1017A000E02DCE01DF91CF911F910F91FF90EF902F
:1017B000DF90CF90BF90AF900994DF91CF911F91B0
:1017C0000F91FF90EF90DF90CF90BF90AF90089572
:1017D000EF92FF920F931F93CF93DF93EC0177FD6E
:1017E00022C08885998568177907ECF457FD1BC0DE
:1017F0008A859B8548175907B4F47901E881F981F6
:1018000006A0F7A1E02D01E010E021E030E0CE01DC
:101810000995B701CE01DF91CF911F910F91FF90F4
:10182000EF900C94170BDF91CF911F910F91FF90C8
:10183000EF9008951F920F920FB60F9211242F93DD
:101840003F938F939F93AF93BF938091A00190910B
:10185000A101A091A201B091A30130919F0123E0C9
:10186000230F2D3720F40196A11DB11D05C026E8D8
:10187000230F0296A11DB11D20939F018093A0010B
:101880009093A101A093A201B093A3018091A40120
:101890009091A501A091A601B091A7010196A11D6B
:1018A000B11D8093A4019093A501A093A601B093CC
:1018B000A701BF91AF919F918F913F912F910F9071
:1018C0000FBE0F901F90189585ED8093BC008091FE
:1018D000BC0084FDFCCF1092330208952F923F92FA
:1018E0004F925F926F927F928F929F92AF92BF9230
:1018F000CF92DF92EF92FF920F931F93CF93DF93DC
:10190000CDB7DEB7C854D1090FB6F894DEBF0FBE0D
:10191000CDBF7C0124E6822E22E0922EA12CB12C98
:101920004F9627969FAF8EAF2797F701FF96299680
:10193000FFAFEEAF299730E7632E31E0732E809131
:10194000E50390E0A816B90608F0FEC0C12CD12C22
:10195000F4E02596FFAF2597150121E022223324DC
:1019600025018FEF481A580A91E0492255248091A9
:10197000E60390E0C816D90608F0DFC0C114D10410
:1019800079F0A114B10461F00297C816D90640F4A9
:101990008091E50390E00297A816B90608F47BC091
:1019A000F701828193819C838B83848195819E83BF
:1019B0008D838681978198878F83808591859A878B
:1019C0008987828593859C878B87848595859E876B
:1019D0008D8786859785988B8F87808991899A8B4B
:1019E000898B828993899C8B8B8B84898D8B85894C
:1019F0008E8B86898F8B8789888F808D898F818D4B
:101A0000928D9B8F8A8F838D948D9D8F8C8F858DEA
:101A1000968D9F8F8E8F82E12796EEADFFAD279733
:101A2000DE01909601900D928A95E1F7F70181A968
:101A30008AAB82A98BAB83A98CAB84A98DAB85A91A
:101A40008EAB86A98FAB87A988AF80AD89AF81ADFA
:101A500092AD9BAF8AAF83AD94AD9DAF8CAF85AD9A
:101A60008EAF86AD8FAF2996EEADFFAD2997808101
:101A70009181A281B38124968CAF9DAFAEAFBFAFF1
:101A800024977A8269828E010F5F1F4F2FEE3BE70A
:101A900041E050E042C02596FFAD25978F2F90E0A2
:101AA000C816D906F9F441145104E1F0B701CE018A
:101AB00001960E947C127A8269828E010F5F1F4F0D
:101AC0002FEE3BE741E050E0B601C5010E9427142C
:101AD00025962FAD25972A3060F52E5F25962FAFDE
:101AE000259727C021143104E9F08AE0A816B10433
:101AF000C8F4C60103970997E0F4C0FE1AC0B70105
:101B0000CE0101960E947C127A8269828E010F5F5B
:101B10001F4F20E038E744E050E0B601C5010E94C5
:101B2000271407C0F601EE0FFF1FE80DF91D118203
:101B300010829FEFC91AD90A1ACFEFEFAE1ABE0A68
:101B4000F0E28F0E911CFBCEC85BDF4F0FB6F8940E
:101B5000DEBF0FBECDBFDF91CF911F910F91FF90E0
:101B6000EF90DF90CF90BF90AF909F908F907F903D
:101B70006F905F904F903F902F90089560E070E0DD
:101B80000C942C04FC0185A9811105C06EBD0DB417
:101B900007FEFDCF08958130E1F488E0A1A1B2A154
:101BA0002C9167FF03C095A1922B02C096A19223AE
:101BB0009C93A3A1B4A12C9197A1922B9C93660F07
:101BC000A3A1B4A12C9190A592239C93815031F7AD
:101BD0000895A78DB0A16C93CF010C94090B2F929F
:101BE0003F924F925F926F927F928F929F92AF92AD
:101BF000BF92CF92DF92EF92FF920F931F93CF93FA
:101C0000DF93CDB7DEB76B970FB6F894DEBF0FBE8C
:101C1000CDBF9B8F8A8F1B014A01D22E198708875F
:101C20003701A982DC0159962D913C915A972115D3
:101C3000310509F0FFC018968D919C91199768178E
:101C400079070CF0E7C11A968D919C911B97481764
:101C500059070CF0DFC1EC2DF0E0FB83EA839B0118
:101C600046E0C49E200D311D11243D872C8712169D
:101C700013060CF0CFC16A2D70E07B876A8783E082
:101C8000660F771F8A95E1F77F876E87CB01880DF6
:101C9000991D181619060CF0BDC158968C9181112A
:101CA00004C08FEA8D1508F4D394AA8DBB8DED91F5
:101CB000FC9111970680F781E02DCD010995B5E0E3
:101CC000DB9EC0011124EC2DF0E0F98BE88B910133
:101CD0002B5F3F4F3B8B2A8B3D822C822101AC0135
:101CE000421953095D8B4C8B7981672F70E07F8B94
:101CF0006E8BC4010896998F888FEC89FD89E40D5D
:101D0000F51DEB50FF4FD49054019F828E82D0FE80
:101D100016C0AA8DBB8DED91FC91B1E0CB1209C02C
:101D20002981213031F40084F185E02D2885398521
:101D300019C00284F385E02DE884F9841DC048852C
:101D400059854615570519F1AA8DBB8DED91FC916A
:101D5000B1E0CB120DC02981213051F40084F1850E
:101D6000E02D9301A501B2018A8D9B8D09950FC0CD
:101D70000284F385E02D73010A851B852A813B814E
:101D80004E815F816C817D818A8D9B8D0995D69472
:101D90003FEFA31AB30A4E815F816E897F89460F98
:101DA000571F5F834E83888D998DA816B90609F059
:101DB000AECF9FEF491A590AAC81BD81E889F989F4
:101DC000AE0FBF1FBD83AC832A893B8942165306E1
:101DD00009F093CF488559854615570509F4F8C091
:101DE000AA8DBB8DED91FC91B1E0CB1211C0298180
:101DF000213071F4B1016B5F7F4F0484F585E02DD4
:101E0000830128E030E0A4018A8D9B8D0995E0C014
:101E10006C857D854A815B81641B750B0284F3852B
:101E2000E02D73010E851F859A01A4018A8D9B8D7B
:101E30000995CEC0F9013496E491DE1AF901329683
:101E400085919491B7E0DB9E800D911D1124F901DD
:101E5000259134913B8B2A8BFC01259134915901BA
:101E6000FC0132965490319634913C8732967490AE
:101E70003196149141E04C1518F05981523068F0B8
:101E8000672D072C000C770B7D836C83812F012E2F
:101E9000000C990B9B838A8304C01B821A821D82CB
:101EA0001C82AA8DBB8DED91FC9111970680F78164
:101EB000E02DCD010995412CD12C612CF981EF2F1A
:101EC000F0E0FF83EE832C2D30E03B872A87A401CE
:101ED000410F511D17FD5A955F8B4E8BB101670D58
:101EE000711D77FC7A95798F688F7C85671608F06D
:101EF0006FC0262D30E04A815B81420F531FAE81B7
:101F0000BF81A49FC001A59F900DB49F900D112487
:101F1000F401E80FF91FF98BE88B842D712C4E89A1
:101F20005F89420F531F5D8B4C8B751408F04DC0B9
:101F300051E0580F5E87877041F4C5010196EA8928
:101F4000FB89EA0DFB1DD4905C01D7FE3AC061E02D
:101F5000C61216C07981713099F4AA8DBB8DED91AE
:101F6000FC9111970084F185E02D288539854C89F5
:101F70005D89688D798D670D711DCD01099521C031
:101F80008C819D81870D911DEA85FB858E9FB00117
:101F90008F9F700D9E9F700D1124620D731DAA8D71
:101FA000BB8DED91FC9111970284F385E02DE884BF
:101FB000F9840E811F812A853B8548895989CD0185
:101FC0000995DD0C73948E85B0CF450C63948DCF4D
:101FD000AA8DBB8DED91FC9111970288F389E02DBC
:101FE000CD016B960FB6F894DEBF0FBECDBFDF916B
:101FF000CF911F910F91FF90EF90DF90CF90BF9006
:10200000AF909F908F907F906F905F904F903F9098
:102010002F9009946B960FB6F894DEBF0FBECDBF1C
:10202000DF91CF911F910F91FF90EF90DF90CF90B4
:10203000BF90AF909F908F907F906F905F904F90E8
:102040003F902F900895CF93DF93EC01ED8DFE8D9F
:1020500090818CA989238083CE010E94C20DED8DD1
:10206000FE8D90818BA9892B8083DF91CF9108957C
:102070001F920F920FB60F9211242F933F934F93FD
:102080005F936F937F938F939F93AF93BF93EF93E0
:10209000FF938091B900887F803609F49CC068F571
:1020A000883209F45BC090F4803109F454C038F4EC
:1020B000882309F4EFC0883009F44DC0EFC088319F
:1020C00009F44CC0803209F45DC0E8C0803409F4E2
:1020D00068C048F4803309F455C0883309F0DEC085
:1020E00080933102D1C0803509F44FC0883509F49E
:1020F0005DC0883409F0D2C0CFC0883909F4C0C0AF
:10210000A8F4883709F467C038F4883609F463C046
:10211000803709F460C0C2C0883809F4B1C0803982
:1021200009F45FC0803809F0B9C05BC0803B09F496
:1021300081C038F4803A09F466C0883A09F47AC05C
:10214000ADC0803C09F4A0C0883C09F49DC0883B28
:1021500009F483C0A3C080910E0210C09091300298
:1021600080912F02981770F5E091300281E08E0F78
:1021700080933002F0E0E15FFD4F80818093BB00EF
:1021800085EC7FC08093310287C0E091300281E00E
:102190008E0F809330028091BB00F0E0E15FFD4F35
:1021A00080839091300280912F0267C0E0913002CD
:1021B00081E08E0F809330028091BB00F0E0E15F00
:1021C000FD4F808380913202811166C081E080934F
:1021D0000D0284EA5AC083E08093330210920C020D
:1021E000CFCF80910C02803208F04AC0E0910C02FF
:1021F00081E08E0F80930C028091BB00F0E0E451EF
:10220000FE4F8083BDCF80910C02803230F4E0918C
:102210000C02F0E0E451FE4F10820E94640C6091C9
:102220000C0270E08CEE91E0E0E0F0E00995109295
:102230000C022AC084E0809333021092EB011092CA
:10224000EA01E0E0F0E009958091EA01811105C022
:1022500081E08093EA011092CA01E091EB0181E0F4
:102260008E0F8093EB01F0E0E653FE4F8081809368
:10227000BB009091EB018091EA01981708F480CFA0
:1022800085E88093BC000AC085EC8093BC00109266
:10229000330204C0109231020E94640CFF91EF914E
:1022A000BF91AF919F918F917F916F915F914F916E
:1022B0003F912F910F900FBE0F901F901895613294
:1022C00098F420913302243089F46093EA01282F96
:1022D000AAECB1E0FC018E2F821B861718F48191C5
:1022E0008D93F9CF80E0089581E0089582E008950C
:1022F00090E0FC01EF51FF4F2491FC01EB50FA4FAD
:102300003491FC01ED5EF94FE491EE2309F43CC0F9
:10231000222339F1233091F038F42130A9F0223012
:1023200001F584B58F7D12C0263091F02730A1F0E1
:102330002430B9F4809180008F7D03C080918000AB
:102340008F77809380000DC084B58F7784BD09C0DE
:102350008091B0008F7703C08091B0008F7D809313
:10236000B000F0E0EE0FFF1FE75FF94FA591B491C9
:102370009FB7F894611104C08C913095382302C046
:10238000EC913E2B3C939FBF08951092330281E065
:102390008093320210920D0261E082E10E94781176
:1023A00061E083E10E947811E9EBF0E080818E7FAB
:1023B000808380818D7F808388E48093B80085E46A
:1023C0008093BC000895CF93DF9390E0FC01EB5025
:1023D000FA4F2491FC01ED5EF94F8491882361F15D
:1023E00090E0880F991FFC01E952FF4FC591D491ED
:1023F000FC01E75FF94FA591B491611109C09FB746
:10240000F8948881209582238883EC912E230BC039
:10241000623061F49FB7F8948881322F309583231E
:102420008883EC912E2B2C939FBF06C08FB7F89416
:10243000E8812E2B28838FBFDF91CF910895682FDD
:1024400088E592E00C94DA0A30915702313208F0B4
:1024500047C0809133028111FCCF9091560222E057
:102460002093330221E0209332022FEF2093310298
:102470001092300230932F02E6E3F2E0AFE0B2E0D8
:1024800020E0321721F041914D932F5FFACF109247
:102490000E0220910E02990F922B90930E029091B2
:1024A0000D02913041F410920D0290910E02909322
:1024B000BB0095EC01C095EE9093BC009091330267
:1024C0009230E1F3909131029F3F79F08091310297
:1024D000803241F080913102803331F084E005C0D8
:1024E00081E003C082E001C083E0109235021092C7
:1024F0005702109234020895CF93DF93EC018CE3DE
:1025000091E099838883FB01828193819B838A83F5
:10251000848195819D838C83868197819F838E831F
:102520008085918599878887828593859B878A870F
:10253000848595859D878C87868597859F878E87DF
:1025400080899189998B888B828993899B8B8A8BCF
:1025500084898C8B85898D8B86898E8B87898F8BDF
:10256000808D888F818D928D9A8F898F84E491E000
:1025700099838883838D948D9C8F8B8F858D968D89
:102580009E8F8D8F82E17F96DE015F9601900D9286
:102590008A95E1F7FB0181A989AB82A98AAB83A95E
:1025A0008BAB84A98CAB85A98DAB86A98EAB87A993
:1025B0008FAB80AD88AF81AD92AD9AAF89AF83AD5F
:1025C00094AD9CAF8BAF85AD8DAF86AD8EAFFF96D2
:1025D00080819181A281B381EF9688839983AA83B8
:1025E000BB83DF91CF9108958F929F92AF92BF925C
:1025F000CF92DF92EF92FF920F931F93CF93DF93CF
:10260000EC014901BE2CAF2CE881F98106A0F7A1AD
:10261000E02D09959401D8010E94101761157105EC
:102620008105910509F481C02DA921110FC06150C8
:1026300071098109910908F478C0AEBC0DB407FE98
:10264000FDCFBEBC0DB407FEFDCFF1CF213009F0A8
:102650003FC0615071098109910908F466C03A2DA3
:1026600028E0E9A1FAA1508137FF03C04DA1452B15
:1026700002C04EA145234083EBA1FCA150814FA194
:10268000452B4083EBA1FCA1508148A54523408305
:10269000330F215031F73B2D28E0E9A1FAA15081F9
:1026A00037FF03C04DA1452B02C04EA145234083F7
:1026B000EBA1FCA150814FA1452B4083EBA1FCA1D4
:1026C000508148A545234083330F215031F7C1CFB6
:1026D000FE1017C0EF8DF8A1F0826B017C01CC0CCD
:1026E000DD1CEE1CFF1CC114D104E104F104E9F06F
:1026F000CE010E94090B81E0C81AD108E108F10857
:10270000F2CF6B017C01EF8DF8A1A082CE010E9477
:10271000090BEF8DF8A1B082CE010E94090B21E0D8
:10272000C21AD108E108F10871F7DF91CF911F912A
:102730000F91FF90EF90DF90CF90BF90AF909F9060
:102740008F9008958F929F92AF92BF92CF92DF9217
:10275000EF92FF920F931F93CF93DF934C01EB0106
:102760006A01590137FF07C0C9010196C80FD91F77
:10277000B194A194B108F401A085B185CA17DB0713
:102780000CF058C017FF07C0C8010196C80ED91E2B
:10279000119501951109F40182859385C816D90612
:1027A0000CF048C0FE01EA0DFB1DAF01415051097C
:1027B00057FD40C0B601600F711F9B0121503109C8
:1027C00037FD38C0D7FF03C05F01C0E0D0E0D7FEBF
:1027D00003C08B01C12CD12C4A175B071CF05D0193
:1027E000AC1ABD0A281739071CF08C010C191D09F9
:1027F000D401ED91FC910680F781E02DC40109958B
:102800009501A601BE01C4010E94F412D401ED910C
:10281000FC910288F389E02DC401DF91CF911F91D3
:102820000F91FF90EF90DF90CF90BF90AF909F906F
:102830008F900994DF91CF911F910F91FF90EF90AE
:10284000DF90CF90BF90AF909F908F900895EF92C0
:10285000FF920F931F937901D801FB0124E0EE0F43
:10286000FF1F2A95E1F7E80FF91FEE0FFF1FEC5944
:10287000FD4F5183408334E1369FA001379F500DB7
:102880001124389FB001399F700D112404E110E02C
:1028900024E130E0CD010E94A2131F910F91FF901F
:1028A000EF900895CF93DF93CDB7DEB7C354D1092E
:1028B0000FB6F894DEBF0FBECDBF40E050E0BA01C6
:1028C0008EEE93E00E949506109235021092570208
:1028D0000E94C5118CE08093B80001E0009334029F
:1028E00012E510935602109235021092570280EFB3
:1028F00090E00E941F1285E590E00E941F120E9446
:102900002412009334021093560210923502109252
:1029100057028BEF90E00E941F1280E090E00E942F
:102920001F120E9424121092C9011092C801109225
:102930003502109257020E94C51140E050E0BA01E2
:102940008EEE93E00E9495066EEE73E0CE01019646
:102950000E947C1200E711E01A830983CE010196E0
:102960000E94BE0D6EEE73E0CE0101960E947C12B5
:102970001A830983CE0101960E946E0CEE24E39423
:10298000BB24BA9425E0A22E35EE932E45EC842E7E
:1029900052E5752E6801809133028111FCCFE092DF
:1029A0003302E0923202B092310210923002A092D1
:1029B0002F02E0920E0280910E02846A80930E0232
:1029C00080910D02813049F410920D0280910E0227
:1029D0008093BB008092BC0002C09092BC008091AA
:1029E00033028130E1F380913002863018F4509048
:1029F000300202C096E0592EAFE0B2E0E8EAF1E022
:102A000080E0851521F09D9191938F5FFACF109210
:102A1000C9015092C80108E911E0612C8091C901F7
:102A2000581659F088E592E00E94F105F80181936B
:102A30008F016394F6E06F12F1CFE092340270924E
:102A40005602109235021092570280E090E00E94E8
:102A50001F120E942412F6E06F1231C0809198017B
:102A6000482F50E040585109909199014C392FEF6F
:102A700052073CF423EE290F273C18F480EDF82E82
:102A80001EC0292F30E0205831092C396FEF36074E
:102A90000CF499C0453651050CF09DC02536310522
:102AA0000CF0A0C020919D01822F90E08095909520
:102AB0009595879580FDA0C020FF9BC0F12CF092DA
:102AC0009E0140EDF41649F060EEF61631F084EC0C
:102AD000F81619F0E8ECFE1269C02091E903309174
:102AE000EA038091EB039091EC03F4ECFF1208C031
:102AF000E4E0220F331FEA95E1F7FC0131960AC0AA
:102B000048ECF4120BC074E0220F331F7A95E1F702
:102B1000FC0131972E0F3F1FF90118C060EDF6122E
:102B200008C0F901319764E0EE0FFF1F6A95E1F7E5
:102B30000BC0E0EEFE123AC02F5F3F4F54E0220F71
:102B4000331F5A95E1F7F901E80FF91FEE0FFF1F48
:102B5000EC59FD4F80819181892B41F550C0893C12
:102B600008F073C0843C49F48091EB039091EC032E
:102B700001969093EC038093EB036EEE73E0CE012D
:102B800001960E947C12DA82C9826091E9037091F9
:102B9000EA038E010F5F1F4F2FE130E042E050E06B
:102BA0008091EB039091EC030E94271468EE73E090
:102BB00080E090E00E945B0660E070E08EEE93E0C3
:102BC0000E942C04E8CE63EE680F673C08F062CFE9
:102BD00008ECF02E74CF9D51973C08F05FCF10EEBB
:102BE000F12E6DCF8D51873C08F05CCFB4ECFB2EFD
:102BF00066CFA6EDFA2E63CFFAEEFF2E60CF6EEE13
:102C000073E0CE0101960E947C12DA82C982609143
:102C1000E9037091EA038E010F5F1F4F20E030E05F
:102C200040E050E08091EB039091EC030E94271468
:102C300080919E018093ED03883C09F090CF8091B4
:102C4000EB039091EC03019794CF803D31F4809198
:102C5000E9039091EA03019708C0803E09F08DCF07
:102C60008091E9039091EA0301969093EA0380939F
:102C7000E90383CFE8E5F2E01382128288EE93E065
:102C8000A0E0B0E084839583A683B78384E091E0DD
:102C900091838083AEEEB3E013961C921E9212973E
:102CA00020EF30E015963C932E93149780E491E04A
:102CB00017969C938E93169719963C932E9318977C
:102CC0001B969C938E931A9756961C9256971D9618
:102CD0001C921E921C971F961C921E921E9781E0BA
:102CE00055968C93559754968C9354972FEF3FEFAE
:102CF00053963C932E93529751963C932E93509714
:102D000057968C93579758961C9258975A961C92A0
:102D10001E925997D5961C92D5978FEFD6968C9385
:102D2000D6978AE0D7968C93D79789E0D8968C93DC
:102D3000D897DA961C921E92D997DC961C921E9216
:102D4000DB97DD961C92DD97DE961C92DE97109243
:102D50002D0410922E0410922F041092300481E35F
:102D600094E090969C938E935F97ECE1F6E0E4916B
:102D7000F0E0EE0FFF1FE75FF94F859194915E96AB
:102D80009C938E935D97EEEFF5E08491D3968C93B0
:102D9000D397EDE1F6E0E491F0E0EE0FFF1FE75F7F
:102DA000F94F259134915C963C932E935B97EFEF0E
:102DB000F5E0E491D196EC93D197E095D296EC931F
:102DC000D297E82FE095D496EC93D49780E791E0E2
:102DD0008D939C93E7EEF3E081E090E09183808314
:102DE000938382839583848324EC2683E2E3F4E057
:102DF0009183808326838DE090E09383828389E0B2
:102E000090E09583848384E18093E4038CE0809355
:102E1000E50380E18093E6030895F8940C94341759
:102E20000E941817332312F48A1B9B0B0C9429174A
:102E3000A29FB001B39FC001A39F700D811D1124FB
:102E4000911DB29F700D811D1124911D08950E9446
:102E50001817B7FF0895821B930B0895EE0FFF1FFD
:0C2E60000590F491E02D0994F894FFCF48
:102E6C0000000000DA0AAD0A0506F105E2050005CE
:102E7C0000000000D5090E060D0600052905010508
:102E8C001D051105300500054B034A03C7048E04CC
:102E9C0049042C04BF036003000000000D060E065D
:102EAC0000000000D5090E06980BDF07E80B590946
:102EBC00D408170930053F034B034A03F007620897
:102ECC00C4092C04BF0360030D060D0600000000AE
:102EDC00D5090E06980BDF07E80B5909D40817091A
:102EEC0030053F034B034A03F0076208C4092C0466
:082EFC00BF03600395065D0BA6
:00000001FF
