:100000000C9458000C9480000C9480000C94800098
:100010000C9480000C9480000C9480000C94800060
:100020000C9480000C9480000C9480000C94800050
:100030000C9480000C9480000C9480000C94800040
:100040000C946A040C9480000C9430040C94F50316
:100050000C9480000C9480000C9480000C94800020
:100060000C94CE020C9480000000000025002800B3
:100070002B00040404040404040402020202020229
:10008000030303030303010204081020408001025C
:1000900004081020010204081020000000070002DC
:1000A0000100000304060000000000000000B4048A
:1000B00011241FBECFEFD8E0DEBFCDBF11E0A0E01E
:1000C000B1E0EAE5FDE002C005900D92A433B1076E
:1000D000D9F722E0A4E3B1E001C01D92A93AB2072A
:1000E000E1F710E0C8E5D0E004C02197FE010E94CE
:1000F000A506C735D107C9F70E94FB040C94A206D8
:100100000C9400003091F201313208F047C0809128
:10011000CE018111FCCF9091F10122E02093CE011C
:1001200021E02093CD012FEF2093CC011092CB0141
:100130003093CA01E1EDF1E0AAEAB1E020E0321724
:1001400021F041914D932F5FFACF1092A901209198
:10015000A901990F922B9093A9019091A801913038
:1001600041F41092A8019091A9019093BB0095ECE5
:1001700001C095EE9093BC009091CE019230E1F3D6
:100180009091CC019F3F79F08091CC01803241F079
:100190008091CC01803331F084E005C081E003C060
:1001A00082E001C083E01092D0011092F20110921F
:1001B000CF01089590E0FC01E656FF4F2491FC0129
:1001C000EA57FF4F3491FC01EE58FF4FE491EE23C4
:1001D000B1F1222339F1233091F038F42130A9F024
:1001E000223001F584B58F7D12C0263091F0273082
:1001F000A1F02430B9F4809180008F7D03C08091FC
:1002000080008F77809380000DC084B58F7784BD88
:1002100009C08091B0008F7703C08091B0008F7DBE
:100220008093B000F0E0EE0FFF1FE859FF4FA5915B
:10023000B4918FB7F894EC91E32BEC938FBF0895B2
:1002400085ED8093BC008091BC0084FDFCCF1092B2
:10025000CE010895613298F42091CE01243089F4C2
:1002600060938501282FA5E6B1E0FC018E2F821B4B
:10027000861718F481918D93F9CF80E0089581E07D
:10028000089582E008950895CF92DF92EF92FF9251
:100290000F931F93CF93DF936C01EB017B01E40E6F
:1002A000F51E00E010E0CE15DF0561F06991D60182
:1002B000ED91FC910190F081E02DC6010995080FA8
:1002C000191FF1CFC801DF91CF911F910F91FF90BE
:1002D000EF90DF90CF9008950895E09164018091B0
:1002E0006301E81730F4F0E0ED5BFE4F808190E0B1
:1002F00008958FEF9FEF08959091640180916301BD
:10030000981750F4E92FF0E0ED5BFE4F208130E0CC
:100310009F5F9093640102C02FEF3FEFC9010895E2
:100320008091630190E020916401821B91090895FE
:10033000CF92DF92EF92FF920F931F93CF93DF93B1
:100340007C01CB018A012091CF01222389F0EB01AE
:100350006B01C40ED51ECC15DD0569F06991D7017E
:10036000ED91FC910190F081E02DC7010995F3CF4B
:10037000642F0E942A01C801DF91CF911F910F9134
:10038000FF90EF90DF90CF900895CF93DF931F926F
:10039000CDB7DEB769832091CF012223D1F0209120
:1003A000F201203240F021E030E0FC01338322836F
:1003B00080E090E015C08091D001E82FF0E0EF528E
:1003C000FE4F998190838F5F8093D0018093F201DB
:1003D00005C061E0CE0101960E942A0181E090E013
:1003E0000F90DF91CF910895682F83EF91E00C94E7
:1003F000C5010F931F93CF93DF93FC01A685B785AB
:100400008D01005C1F4FE8018881998101968F73EF
:100410009927AD014E5B5F4FEA012881398128178A
:100420003907D1F3E80128813981A20FB31F6C93FA
:10043000A685B785A05CBF4F11969C938E93A68925
:10044000B7892C9181E090E0078C02C0880F991F3A
:100450000A94E2F7822B8C9381E081A30488F589CA
:10046000E02D80818064808381E090E0DF91CF91F6
:100470001F910F910895FC0181A1882329F0A4897F
:10048000B5898C9186FFFBCF11A20895FC01A4854C
:10049000B585FD01E05CFF4F20813181329680817E
:1004A00091812817390779F080819181A80FB91FB0
:1004B0008C91208131812F5F3F4F2F733327318300
:1004C000208390E008958FEF9FEF0895DC011C9644
:1004D000ED91FC911D97DF01A05CBF4F2D913C91E8
:1004E000119712968D919C9111972817390739F021
:1004F0008D919C91E80FF91F808190E008958FEF16
:100500009FEF0895FC0124853585F901E05CFF4FDC
:1005100080819181329620813181821B930B8F7370
:10052000992708953FB7F89480913F019091400139
:10053000A0914101B091420126B5A89B05C02F3F73
:1005400019F00196A11DB11D3FBFBA2FA92F982FF9
:100550008827820F911DA11DB11DBC01CD0142E074
:10056000660F771F881F991F4A95D1F70895FC01E0
:1005700001900020E9F73197E81BF90BDC019D01A0
:10058000281B390B2E173F0744F42D913091C000E2
:1005900035FFFCCF2093C600F2CF08951F920F9233
:1005A0000FB60F9211242F933F934F935F936F9346
:1005B0007F938F939F93AF93BF93EF93FF9380911C
:1005C000B900887F803609F49CC068F5883209F448
:1005D0005BC090F4803109F454C038F4882309F4E6
:1005E000EFC0883009F44DC0EFC0883109F44CC029
:1005F000803209F45DC0E8C0803409F468C048F472
:10060000803309F455C0883309F0DEC08093CC01F3
:10061000D1C0803509F44FC0883509F45DC08834F5
:1006200009F0D2C0CFC0883909F4C0C0A8F4883717
:1006300009F467C038F4883609F463C0803709F4D8
:1006400060C0C2C0883809F4B1C0803909F45FC005
:10065000803809F0B9C05BC0803B09F481C038F430
:10066000803A09F466C0883A09F47AC0ADC0803C8B
:1006700009F4A0C0883C09F49DC0883B09F483C0FC
:10068000A3C08091A90110C09091CB018091CA01B3
:10069000981770F5E091CB0181E08E0F8093CB012C
:1006A000F0E0E655FE4F80818093BB0085EC7FC073
:1006B0008093CC0187C0E091CB0181E08E0F8093C5
:1006C000CB018091BB00F0E0E655FE4F8083909116
:1006D000CB018091CA0167C0E091CB0181E08E0F10
:1006E0008093CB018091BB00F0E0E655FE4F808304
:1006F0008091CD01811166C081E08093A80184EAD8
:100700005AC083E08093CE011092A701CFCF809191
:10071000A701803208F04AC0E091A70181E08E0F66
:100720008093A7018091BB00F0E0E957FE4F8083E2
:10073000BDCF8091A701803230F4E091A701F0E0B5
:10074000E957FE4F10820E9420016091A70170E0DE
:1007500087E891E0E0E0F0E009951092A7012AC057
:1007600084E08093CE011092860110928501E0E032
:10077000F0E0099580918501811105C081E08093A9
:10078000850110926501E091860181E08E0F8093D2
:100790008601F0E0EB59FE4F80818093BB00909181
:1007A000860180918501981708F480CF85E88093B1
:1007B000BC000AC085EC8093BC001092CE0104C03E
:1007C0001092CC010E942001FF91EF91BF91AF9157
:1007D0009F918F917F916F915F914F913F912F9159
:1007E0000F900FBE0F901F9018951F920F920FB68B
:1007F0000F9211242F933F938F939F93EF93FF9327
:1008000020913F023091400280914102909142023A
:100810002817390731F48091C1008F7D8093C10082
:1008200014C0E0914102F0914202E150FE4F20815C
:10083000809141029091420201968F739927909383
:100840004202809341022093C600FF91EF919F9155
:100850008F913F912F910F900FBE0F901F90189581
:100860001F920F920FB60F9211242F934F935F9305
:100870008F939F93EF93FF938091C00082FD1CC0E4
:100880002091C6008091830290918402409185025C
:100890005091860201968F7399274817590771F076
:1008A000E0918302F0918402ED5BFD4F20839093F1
:1008B00084028093830202C08091C600FF91EF9171
:1008C0009F918F915F914F912F910F900FBE0F903D
:1008D0001F9018951F920F920FB60F9211242F930D
:1008E0003F938F939F93AF93BF9380913B019091E0
:1008F0003C01A0913D01B0913E0130913A0123E0CD
:10090000230F2D3720F40196A11DB11D05C026E847
:10091000230F0296A11DB11D20933A0180933B0144
:1009200090933C01A0933D01B0933E0180913F0123
:1009300090914001A0914101B09142010196A11D09
:10094000B11D80933F0190934001A0934101B0936A
:100950004201BF91AF919F918F913F912F910F9045
:100960000FBE0F901F901895E3EFF1E013821282F3
:1009700088EE93E0A0E0B0E084839583A683B783FC
:1009800024E031E031832083E7E8F2E01382128231
:1009900084839583A683B78384E191E091838083E8
:1009A00083E492E0958784878FEF91E0978786872D
:1009B00085EC90E0918B808B84EC90E0938B828B24
:1009C00080EC90E0958B848B81EC90E0978B868B0C
:1009D00082EC90E0918F808F86EC90E0938F828FF5
:1009E00084E0848F83E0858F87E0868F85E0878F22
:1009F00081E080A30895CF93DF9300D000D000D092
:100A0000CDB7DEB7E0919B02F0919C0281E090E0CF
:100A10009C010090A70202C0220F331F0A94E2F744
:100A20002083E0919702F09198021082E091990260
:100A3000F0919A022FEC20831092A802E0919D027F
:100A4000F0919E0240819C010090A30202C0220FFF
:100A5000331F0A94E2F7242B2083E0919D02F0914A
:100A60009E0240819C010090A40202C0220F331F0D
:100A70000A94E2F7242B2083E0919D02F0919E02DC
:100A800040819C010090A50202C0220F331F0A94EE
:100A9000E2F7242B2083E0919D02F0919E022081B9
:100AA0000090A60202C0880F991F0A94E2F7809571
:100AB000822380831092C50087E68093C40086E07D
:100AC0008093C20088E18093C1001092640110926B
:100AD00063011092D0011092F2011092CE0111E048
:100AE0001093CD011092A80182E10E94DA0083E107
:100AF0000E94DA008091B9008E7F8093B9008091C6
:100B0000B9008D7F8093B90088E48093B80085E4B4
:100B10008093BC008CE08093B8001093CF0182E5F5
:100B20008093F1011092D0011092F20180EF90E0D9
:100B30000E94F40185E590E00E94F4010E94820089
:100B40001093CF011092D0011092F2018BEF90E040
:100B50000E94F40180E090E00E94F4010E94820073
:100B6000FF24F39465EC962E72E5E72EEAE5CE2E8F
:100B7000D12C609020017090210180902201FAE038
:100B8000AF2EB12C8091CE018111FCCFF092CE011D
:100B9000F092CD012FEF2093CC011092CB0165E0B4
:100BA0006093CA01F092A9018091A901846A80939F
:100BB000A9018091A801813049F41092A801809187
:100BC000A9018093BB009092BC0003C085EE809386
:100BD000BC008091CE018130E1F38091CB01863061
:100BE00018F44090CB0102C056E0452EAAEAB1E0CD
:100BF000E3E4F1E080E0841521F09D9191938F5F13
:100C0000FACF109264014092630104E311E0512C89
:100C100080916401481659F083EF91E00E947C01B5
:100C2000F80181938F015394F6E05F12F1CFF092B7
:100C3000CF01E092F1011092D0011092F20180E018
:100C400090E00E94F4010E948200F6E05F1243C02F
:100C500080913401482F50E040585109909135015E
:100C60004C39EFEF5E072CF423EE290F273C08F4F4
:100C70005BC0292F30E0205831092C396FEF36073F
:100C80002CF463EE680F673C08F44AC04536510502
:100C900024F09D51973C08F44BC0253631051CF0DB
:100CA0008D51873CC8F120913901822F90E08095C9
:100CB00090959595879580FD2AC020FD06C0DA8223
:100CC000C982CE0101960E94B702BA82A982CE01E2
:100CD00001960E94B7020E9492028B0144E6242EE4
:100CE000312C412C512C0E949202601B710B683EEA
:100CF0007340C8F3E1E02E1A310841085108085149
:100D00001C4F211431044104510469F73BCF83E4A3
:100D100090E09A838983D5CF69827A828B82D1CF02
:100D200085E0E3E2F1E007C085E0E8E2F1E003C03E
:100D300086E0EDE2F1E0DE01119601900D928A95D8
:100D4000E1F7BFCFF8940C94AB06EE0FFF1F0590B0
:0A0D5000F491E02D0994F894FFCF10
:100D5A0000000000C501980190017C016D016C0141
:100D6A0000000000F90144018202460266023B02C9
:100D7A00555000444F574E004C454654005249477F
:040D8A0048540000C9
:00000001FF
